:100000000C9464000C948C000C948C000C948C0068
:100010000C948C000C948C000C948C000C948C0030
:100020000C948C000C948C000C948C000C944D035C
:100030000C948C000C948C000C948C000C948C0010
:100040000C94ED0A0C948C000C94580E0C948A0EAF
:100050000C948C000C948C000C948C000C948C00F0
:100060000C94C0090C948C000000000800020100F0
:100070000003040700000000000000000102040863
:100080001020408001020408102001020408102002
:10009000040404040404040402020202020203032E
:1000A00003030303000000002300260029000000D2
:1000B0000000250028002B0000000000240027007D
:1000C0002A00E502D608BA0E11241FBECFEFD8E0F1
:1000D000DEBFCDBF11E0A0E0B1E0E4E7FAE202C08C
:1000E00005900D92AE37B107D9F723E0AEE7B1E046
:1000F00001C01D92AB34B207E1F710E0C8ECD0E0CC
:1001000004C02297FE010E94A112C23CD107C9F788
:100110000E94FE0E0C9438150C9400002F923F9212
:100120004F925F926F927F928F929F92AF92BF9207
:10013000CF92DF92EF92FF920F931F93CF93DF93B3
:1001400000D01F92CDB7DEB75C014B012901FB0146
:100150000481158101501109612C712CCC24CA94A1
:10016000DC2C212C312CE12CF12C7B826A820615AF
:1001700017057CF14E145F042CF16A817B81C40168
:1001800049830E94C8112A813B812F5F3F4F4981DB
:10019000841741F08A819B818017910719F0DB82D7
:1001A000CA820CC09FEFE91AF90A1601EFEF2E1A66
:1001B0003E0A6016710611F43B832A833901CA8016
:1001C000DB80D3CF9601A101B401C5010E94E611E5
:1001D00008C04E145F04B4F36FE671E0C5010E94DD
:1001E0002A11C5010F900F900F90DF91CF911F91B1
:1001F0000F91FF90EF90DF90CF90BF90AF909F90C6
:100200008F907F906F905F904F903F902F900895C8
:10021000AF92BF92CF92DF92EF92FF920F931F9314
:10022000CF93DF9300D000D000D0CDB7DEB78C01E4
:1002300082EA91E00E94BB0540E060E082EA91E042
:100240000E94C205F801C480D580F1E2CF16D10426
:100250005CF06BE071E0CE0101960E942A11CE01A4
:1002600001960E94080146C081E1C816D10434F409
:10027000B80182EA91E00E944B0F40C040E050E09C
:1002800060E2C8010E94CA117C01813191054CF4E1
:10029000A7014F5F5F4F60E2C8010E94CA1157017A
:1002A000F3CF950140E050E0B801CE0101960E94E5
:1002B000E611BE016F5F7F4F82EA91E00E944B0F13
:1002C000CE0101960E94BC1041E060E082EA91E01C
:1002D0000E94C205A5014F5F5F4F9601B801CE0194
:1002E00001960E94E611BE016F5F7F4F82EA91E0A6
:1002F0000E944B0FCE0101960E94BC1026960FB6AD
:10030000F894DEBF0FBECDBFDF91CF911F910F914B
:10031000FF90EF90DF90CF90BF90AF900895DF9265
:10032000EF92FF920F931F93CF93DF93CDB7DEB77A
:1003300064970FB6F894DEBF0FBECDBF4AE06AEAFD
:1003400072E0CE010D960E944D1060E070E0CE018B
:100350000D960E94C811823509F46FC024F48434CC
:1003600009F4FCC020C1833509F49DC0873509F02C
:100370001AC1BE01635F7F4FCE0107960E945711DD
:1003800022E030E04AE3BE01695F7F4FCE01019673
:100390000E948E00CE0101960E942B12162FD72E9E
:1003A000CE0101960E94BC10CE0107960E94BC109F
:1003B000BE01635F7F4FCE0107960E94571123E075
:1003C00030E04AE3BE01695F7F4FCE0101960E9493
:1003D0008E00CE0101960E942B12E62E072FCE0131
:1003E00001960E94BC10CE0107960E94BC1062E0EC
:1003F00070E0CE010D960E94C811843429F46E2D50
:10040000812F0E94B20CCFC0813431F46E2D702F39
:10041000812F0E94F10BC7C0833509F0C4C0212F82
:100420003D2DC901880F991F820F931F6E2D702FCC
:1004300082589E4F0E94DC04B6C0BE01635F7F4FAE
:10044000CE0107960E94571122E030E04AE3BE0138
:10045000695F7F4FCE0101960E948E00CE0101960A
:100460000E942B12162FCE0101960E94BC10CE01C5
:1004700007960E94BC1062E070E0CE010D960E94CB
:10048000C811843421F4812F0E94E80C05C0813406
:1004900051F4812F0E94D40B4AE050E0BC018AEA5B
:1004A00092E00E94071062E070E0CE010D960E947B
:1004B000C811082FBE01635F7F4FCE0107960E94CF
:1004C000571122E030E04AE3BE01695F7F4FCE0161
:1004D00001960E948E00CE0101960E942B12162FCB
:1004E000F72ECE0101960E94BC10CE0107960E9405
:1004F000BC10BE01635F7F4FCE0107960E9457116B
:1005000023E030E04AE3BE01695F7F4FCE010196F0
:100510000E948E00CE0101960E942B12CE01019600
:100520006B8B7C8B0E94BC10CE0107960E94BC1086
:100530006B897C89003521F4812F0E94790C33C0AE
:10054000033589F5212F3F2DC901880F991F820F8F
:10055000931F82589E4F0E94A30425C062E070E062
:10056000CE010D960E94C8118435E9F4BE01635F87
:100570007F4FCE0107960E94571122E030E04AE3F8
:10058000BE01695F7F4FCE0101960E948E00CE01B1
:1005900001960E940801CE0101960E94BC10CE0176
:1005A00007960E94BC10CE010D960E94BC10649666
:1005B0000FB6F894DEBF0FBECDBFDF91CF911F9174
:1005C0000F91FF90EF90DF9008958F92AF92CF92AE
:1005D000EF920F93CF93DF931F921F9283E08F933D
:1005E00067E0862E76E0A72EE5E0CE2EF4E0EF2E33
:1005F00000E021E042E067E282EA91E00E94080721
:10060000CEE7D1E00F900F900F90CE010E94090429
:10061000239681E0C23AD807C1F7DF91CF910F91BD
:10062000EF90CF90AF908F900895CF93DF9300D04D
:1006300000D000D0CDB7DEB720E042E060E182EA32
:1006400091E00E94960782EA91E00E94AB0540E0AB
:1006500060E082EA91E00E94C20562E271E0CE01B0
:1006600001960E942A11CE0101960E940801CE0136
:1006700001960E94BC1026E040E052EC61E070E080
:100680008AEA92E00E94F60D26960FB6F894DEBF35
:100690000FBECDBFDF91CF9108951F920F920FB67D
:1006A0000F9211242F933F934F935F936F937F93F8
:1006B0008F939F93AF93BF93EF93FF938091BC0170
:1006C00087FF05C010928500109284001AC0209107
:1006D000BC01332727FD30958091BB0190E028179E
:1006E00039077CF48091BC01992787FD9095FC0126
:1006F000EE0FFF1FE80FF91FE354FE4F808186FDC8
:1007000015C08091BC018F5F8093BC012091BC011A
:10071000332727FD30958091BB0190E028173907DA
:10072000BCF48091BC018C305CF112C08091BC01A2
:10073000992787FD9095FC01EE0FFF1FE80FF91F29
:10074000E354FE4F808160E08F730E94B20CD9CFDA
:100750008091840090918500049680349C4918F41F
:1007600080E49CE905C08091840090918500049606
:1007700090938900809388008FEF8093BC0138C0EC
:1007800020918400309185008091BC01992787FDDC
:100790009095FC01EE0FFF1FE80FF91FE354FE4F89
:1007A00081819281820F931F9093890080938800AA
:1007B0008091BC01992787FD9095FC01EE0FFF1FEA
:1007C000E80FF91FE354FE4F808186FF11C080912E
:1007D000BC01992787FD9095FC01EE0FFF1FE80FE4
:1007E000F91FE354FE4F808161E08F730E94B20CC9
:1007F000FF91EF91BF91AF919F918F917F916F91F9
:100800005F914F913F912F910F900FBE0F901F90CE
:1008100018952091BB012C30A0F431E0320F3093B9
:10082000BB01FC012083822F90E0FC01EE0FFF1F33
:10083000E80FF91FE354FE4F88EB9BE0928381831E
:1008400008952FEFFC0120830895DF92EF92FF922D
:100850000F931F93CF93DF93EC01D62E7A0189017A
:1008600088818C3008F066C061E08D2D0E94790C83
:100870008881A82FB0E0FD01EE0FFF1FEA0FFB1FDC
:10088000E354FE4F2D2D2F739081907C922B9083FB
:1008900060E272E06E197F0977FF02C06D5F7F4FE3
:1008A0007595679575956795698340E659E0401B96
:1008B000510B57FF02C04D5F5F4F559547955595BA
:1008C00047954A836CE00E9447129CE0899FB001E3
:1008D000112420E030E0A901460F571FFA01EE0F66
:1008E000FF1FE40FF51FE354FE4F908196FD16C0E5
:1008F0002F5F3F4F2C30310571F781110FC01092DF
:10090000800082E080938100109285001092840024
:10091000B19A80916F00826080936F00888190E02F
:10092000FC01EE0FFF1FE80FF91FE354FE4F80811B
:10093000806480838881DF91CF911F910F91FF9018
:10094000EF90DF90089520E639E040E252E00C9409
:100950002504FC0180818C3070F5918128E830E01D
:10096000291B310997FD3395220F331F220F331FA7
:10097000621773077CF0928128E532E0291B310968
:1009800097FD3395220F331F220F331F6217730712
:100990000CF49B0122503109220F331F4FB7F894FA
:1009A00090E0FC01EE0FFF1FE80FF91FE354FE4F2C
:1009B000328321834FBF08954F925F926F927F924F
:1009C000AF92BF92CF92DF92EF92FF920F931F935D
:1009D000CF93DF93EC01603282E078070CF040C0E7
:1009E00077FD06C0653B71052CF064EB70E002C03A
:1009F00060E070E0898128E830E0281B310987FD3C
:100A00003395220F331F220F331F5901CC24B7FC1B
:100A1000C094DC2C882777FD8095982F2A8148E5A3
:100A200052E0421B510927FD5395440F551F440FB7
:100A3000551F2A01662457FC6094762C7F926F9292
:100A40005F924F9214EBE12EF12C00E010E020E0D9
:100A500030E0A9010E9475100F900F900F900F9039
:100A6000CE01DF91CF911F910F91FF90EF90DF901A
:100A7000CF90BF90AF907F906F905F904F900C940D
:100A8000A904FC0112828FEF8183108213820895E2
:100A9000FC018381882331F0611103C08FEF8183D2
:100AA000089511820895CF93DF93EC016A8381EE5C
:100AB00091E00E94480841E06A8181EE91E00E9445
:100AC000D00891E0811101C090E09B8381EE91E01C
:100AD0000E94B90788838B8190E0DF91CF910895C0
:100AE000CF93DF93EC018B818823A9F089818095D6
:100AF000862388836A8181EE91E00E945208688192
:100B000081EE91E00E94090881EE91E00E94D308F5
:100B1000282F30E002C020E030E081E090E0232B7D
:100B200011F080E090E0DF91CF910895089508954D
:100B3000DC01ED91FC910284F385E02D41E0099503
:100B400081E090E00895FC011382128221E331E0FC
:100B5000318320830895DC01ED91FC910084F185BF
:100B6000E02D6FEF0994DC01ED91FC910284F38597
:100B7000E02D40E0099461E00E94B30580ED97E02C
:100B80000C948E0BCF93DF93CDB7DEB728970FB6BB
:100B9000F894DEBF0FBECDBF1D8220E42E8334E16A
:100BA0003F8334E5388719822A8320E12B8320E5AF
:100BB0002C83FC012781421710F04FEF420FFC01FC
:100BC000308550E0FE01E40FF51F303121F4243070
:100BD00011F4218101C02581260F2068622F2896FB
:100BE0000FB6F894DEBF0FBECDBFDF91CF910C944E
:100BF000B305FC016581262F246025836C600C946D
:100C0000B305CF93DF93EC01423018F08C818860FC
:100C10008C834F836887222329F0413019F48C811B
:100C200084608C8364E670E080E090E00E94660B54
:100C30006C8164FD31C0E881F9810284F385E02D87
:100C400042E063E0CE01099584E991E10E948E0BB8
:100C5000E881F9810284F385E02D42E063E0CE0172
:100C6000099584E991E10E948E0BE881F981028463
:100C7000F385E02D42E063E0CE01099586E990E03E
:100C80000E948E0BE881F9810284F385E02D42E019
:100C900062E0CE01099516C06062CE010E94B305E4
:100CA00084E991E10E948E0B6C816062CE010E940A
:100CB000B30586E990E00E948E0B6C816062CE01E4
:100CC0000E94B3056C816062CE010E94B30584E08E
:100CD0008D83CE010E94F905CE010E94BB0582E002
:100CE0008E8366E0CE010E94B305CE01DF91CF91E5
:100CF0000C94AB0521E001C0220F6A95EAF7DC01F4
:100D00001C962C931C971A965C934E931997ED9111
:100D1000FC910084F185E02D60E00994FC012485BC
:100D2000222399F081859285009719F4611105C0FD
:100D300006C0019721F4611102C0258701C0158604
:100D40006585CF010E960C94700508950F931F933F
:100D5000CF93DF93EC018C01025F1F4F6B85C801BD
:100D60000E945305019761F461E0C8010E944805A3
:100D70001C8260E0C8010E94700581E090E002C022
:100D800080E090E0DF91CF911F910F9108958F92B5
:100D9000AF92CF92EF920F93CF93DF93CDB7DEB7A1
:100DA000FC016387148615861286118681E0982FD0
:100DB00001C0990F4A95EAF7928B982F01C0990FBD
:100DC0002A95EAF7938B982F01C0990F0A95EAF7B5
:100DD000948B982F01C0990FEA94EAF7958B982F7E
:100DE00001C0990FCA94EAF7968B982F01C0990F0A
:100DF000AA94EAF7978B01C0880F8A94EAF7808F4C
:100E0000DF91CF910F91EF90CF90AF908F90089599
:100E10004F925F926F927F928F92AF92CF92EF92AA
:100E20000F931F93CF93DF9300D01F92CDB7DEB700
:100E30003C011A894B885C882B834A8369830E9412
:100E4000A30581E491E0F30191838083C3010E96B1
:100E50000E9441052B814A816981C3010E94C70616
:100E6000A201612FC3010F900F900F90DF91CF91DE
:100E70001F910F91EF90CF90AF908F907F906F90D8
:100E80005F904F900C947A06FF920F931F93CF932D
:100E9000DF93EC01F62E8C01025F1F4F6A896F29E8
:100EA000C8010E9470056A8960956F21C801DF91B1
:100EB000CF911F910F91FF900C94700520E030E0CE
:100EC00050E060FF05C0FC01E20FF31F7589572B4E
:100ED00066952F5F3F4F2430310599F7413011F46B
:100EE000FC014489FC016585652B642B0C94440747
:100EF0000F931F93CF93DF93EC01142F062F0F70E6
:100F0000423011F440E00AC070E084E075956795C6
:100F10008A95E1F7CE010E945E07412F602FCE0136
:100F2000DF91CF911F910F910C945E070F931F9348
:100F3000CF93DF9300D01F92CDB7DEB78C012B8308
:100F40004A8369830E94A6062B814A816981C80170
:100F50000F900F900F90DF91CF911F910F910C94F4
:100F600001068091110290E020911202821B9109EA
:100F700008952091120280911102281750F4E22F57
:100F8000F0E0ED5EFD4F808190E02F5F2093120234
:100F900008958FEF9FEF0895E09112028091110262
:100FA000E81730F4F0E0ED5EFD4F808190E00895A9
:100FB0008FEF9FEF08950895CF92DF92EF92FF9207
:100FC0000F931F93CF93DF937C01CB018A01209174
:100FD000ED01222389F0EB016B01C40ED51ECC1567
:100FE000DD0569F06991D701ED91FC910190F081E7
:100FF000E02DC7010995F3CF642F0E949709C8011E
:10100000DF91CF911F910F91FF90EF90DF90CF90E4
:101010000895CF93DF931F92CDB7DEB769832091F8
:10102000ED012223D1F02091EE01203240F021E0A9
:1010300030E0FC013383228380E090E015C0809192
:10104000EF01E82FF0E0E051FE4F998190838F5F30
:101050008093EF018093EE0105C061E0CE0101961F
:101060000E94970981E090E00F90DF91CF91089561
:10107000FC011382128248EE53E060E070E044838A
:1010800055836683778381E591E09183808308951A
:1010900010921202109211021092EF011092EE01C2
:1010A0000C94DA0881E08093ED01609310021092B5
:1010B000EF011092EE0108950F93062F21E0409169
:1010C000EE0160EF71E0809110020E9440091092E1
:1010D000EF011092EE011092ED010F9108958F92A1
:1010E0009F92AF92BF92CF92DF92EF92FF920F93B7
:1010F0001F93CF93DF93EC01F62ED42E48015901B4
:10110000EE2019F10E9452081E2D143008F013E051
:101110001150B8F0E881F98128E0129FB001112444
:10112000A501940104C056954795379527956A9572
:10113000D2F7CA01B9010190F081E02DCE010995E5
:10114000E7CF60E0CE010E945C084D2D413208F0EF
:1011500040E22C2D63E172E08F2D0E94F80810927E
:10116000120280931102DF91CF911F910F91FF9096
:10117000EF90DF90CF90BF90AF909F908F900895A9
:10118000CF92EF920F931F93C22EE12C00E010E05C
:1011900098010E946F081F910F91EF90CF900895D2
:1011A00021E00C94C00861E00C945C0881EE91E0B1
:1011B0000C9438081092A00281E080939E02109255
:1011C0009D0261E082E10E94B20C61E083E10E9435
:1011D000B20CE9EBF0E080818E7F808380818D7F8F
:1011E000808388E48093B80085E48093BC000895F0
:1011F000413208F043C09091A0029111FCCF91E0E0
:101200009093A00220939E022FEF2093330210921E
:101210007802240F2093770290939F0290919F026F
:10122000880F892B80939F0280919D02813061F409
:1012300010929D0280919F028093BB008091BC0020
:1012400083FDF8CF85EC01C085EE8093BC008091D2
:10125000A0028130E1F380917802841710F440916C
:10126000780229E732E0FB01D9018A2F821B84171B
:1012700018F48D918193F9CF842F089580E008951B
:101280000F93413208F04AC09091A0029111FCCF17
:1012900092E09093A00200939E029FEF90933302FE
:1012A0001092780240937702FB0169E772E0DB015C
:1012B0009A2F961B941718F491919D93F9CF109241
:1012C0009F0290919F02880F892B80939F028091AB
:1012D0009D02813061F410929D0280919F02809363
:1012E000BB008091BC0083FDF8CF85EC01C085EE8A
:1012F0008093BC00222321F08091A0028230E1F390
:10130000809133028F3F61F080913302803251F03F
:1013100080913302803341F483E007C081E005C04F
:1013200080E003C082E001C084E00F910895613243
:1013300098F42091A002243089F460935502FC01B6
:1013400087E592E0DC012A2F281B261718F421914B
:101350002D93F9CF80E0089581E0089582E008950B
:1013600085ED8093BC008091BC0084FDFCCF109281
:10137000A002089585EC8093BC001092A00208950D
:101380001F920F920FB60F9211242F933F934F93FA
:101390005F936F937F938F939F93AF93BF93EF93DD
:1013A000FF938091B900887F803609F49EC078F55C
:1013B000883209F45DC090F4803109F456C038F4E5
:1013C000882309F4F5C0883009F44FC0F5C088318E
:1013D00009F44EC0803209F45FC0EEC0803409F4D5
:1013E0006AC058F4803309F457C0883309F0E4C068
:1013F000809333020E94BA09DFC0803509F44FC0E0
:10140000883509F45DC0883409F0D6C0D3C0883966
:1014100009F4C4C0A8F4883709F467C038F48836E2
:1014200009F463C0803709F460C0C6C0883809F485
:10143000B5C0803909F45FC0803809F0BDC05BC019
:10144000803B09F483C038F4803A09F466C0883AD6
:1014500009F47CC0B1C0803C09F4A4C0883C09F404
:10146000A1C0883B09F487C0A7C080919F0210C02B
:101470009091780280917702981770F5E091780248
:1014800081E08E0F80937802F0E0E758FD4F808175
:101490008093BB0085EC83C0809333028BC0E091C6
:1014A000780281E08E0F809378028091BB00F0E09B
:1014B000E758FD4F808390917802809177026BC04E
:1014C000E091780281E08E0F809378028091BB00DA
:1014D000F0E0E758FD4F808380919E0281116AC041
:1014E00081E080939D0284EA5EC083E08093A00245
:1014F00010923402CFCF80913402803208F04EC077
:10150000E091340281E08E0F809334028091BB0021
:10151000F0E0EB5CFD4F8083BDCF0E94BA09809163
:101520003402803230F4E0913402F0E0EB5CFD4FA5
:1015300010826091340270E0E0919902F0919A0279
:1015400085E392E009951092340236C084E08093DE
:10155000A0021092560210925502E0919B02F09167
:101560009C02099580915502811105C081E080930C
:10157000550210925702E091560281E08E0F80933F
:101580005602F0E0E95AFD4F80818093BB009091B4
:10159000560280915502981708F47CCF85E8809315
:1015A000BC000AC085EC8093BC001092A00204C06D
:1015B000109233020E94B009FF91EF91BF91AF9159
:1015C0009F918F917F916F915F914F913F912F915B
:1015D0000F900FBE0F901F9018951F920F920FB68D
:1015E0000F9211242F933F938F939F93AF93BF93A9
:1015F0008091A2029091A302A091A402B091A502B1
:101600003091A10223E0230F2D3720F40196A11D74
:10161000B11D05C026E8230F0296A11DB11D209320
:10162000A1028093A2029093A302A093A402B0937C
:10163000A5028091A6029091A702A091A802B09164
:10164000A9020196A11DB11D8093A6029093A70245
:10165000A093A802B093A902BF91AF919F918F91DF
:101660003F912F910F900FBE0F901F9018952FB79D
:10167000F8946091A2027091A3028091A4029091CB
:10168000A5022FBF08953FB7F8948091A6029091CC
:10169000A702A091A802B091A90226B5A89B05C0F7
:1016A0002F3F19F00196A11DB11D3FBF6627782F6E
:1016B000892F9A2F620F711D811D911D42E0660FC7
:1016C000771F881F991F4A95D1F70895CF92DF920F
:1016D000EF92FF92CF93DF936B017C010E94430B4B
:1016E000EB01C114D104E104F10489F00E94361227
:1016F0000E94430B6C1B7D0B683E734090F381E0AE
:10170000C81AD108E108F108C851DC4FEACFDF91CF
:10171000CF91FF90EF90DF90CF90089582309105A8
:1017200038F0880F991F880F991F05970197F1F7D7
:101730000895789484B5826084BD84B5816084BD49
:1017400085B5826085BD85B5816085BDEEE6F0E03A
:10175000808181608083E1E8F0E010828081826096
:101760008083808181608083E0E8F0E08081816017
:101770008083E1EBF0E0808184608083E0EBF0E047
:10178000808181608083EAE7F0E0808184608083EB
:101790008081826080838081816080838081806895
:1017A00080831092C10008958E3008F08E508770AB
:1017B00020910A0190E4299F90011124822B8093AB
:1017C0007C0080917A00806480937A0080917A0016
:1017D00086FDFCCF809178002091790090E0922BDB
:1017E00008951F93CF93DF93182FEB0161E00E94C0
:1017F000790C209711F460E004C0CF3FD10539F493
:1018000061E0812FDF91CF911F910C94B20CE12FF9
:10181000F0E0E859FF4FE491E330F9F048F4E130AB
:10182000B9F0E230A1F584B5806284BDC8BD34C092
:10183000E730E9F0E83019F1E43049F580918000B3
:10184000806280938000D0938B00C0938A0024C074
:1018500084B5806884BDC7BD1FC08091800080684A
:1018600080938000D0938900C093880015C0809138
:10187000B00080688093B000C093B3000DC0809129
:10188000B00080628093B000C093B40005C0C0383F
:10189000D1050CF0B5CFAFCFDF91CF911F91089557
:1018A000833081F028F4813099F08230A1F00895DE
:1018B0008730A9F08830B9F08430D1F4809180006D
:1018C0008F7D03C0809180008F7780938000089582
:1018D00084B58F7702C084B58F7D84BD08958091D3
:1018E000B0008F7703C08091B0008F7D8093B000EF
:1018F0000895CF93DF9390E0FC01E458FF4F2491CB
:10190000FC01E057FF4F8491882349F190E0880F54
:10191000991FFC01E854FF4FA591B49182559F4F48
:10192000FC01C591D4919FB7611108C0F8948C91C6
:10193000209582238C93888182230AC0623051F4DF
:10194000F8948C91322F309583238C938881822B4D
:10195000888304C0F8948C91822B8C939FBFDF9175
:10196000CF9108950F931F93CF93DF931F92CDB71D
:10197000DEB7282F30E0F901E859FF4F8491F901D3
:10198000E458FF4F1491F901E057FF4F04910023F1
:10199000C9F0882321F069830E94500C6981E02FEF
:1019A000F0E0EE0FFF1FE255FF4FA591B4919FB7F6
:1019B000F8948C91611103C01095812301C0812B93
:1019C0008C939FBF0F90DF91CF911F910F9108953E
:1019D000CF93DF93282F30E0F901E859FF4F84912E
:1019E000F901E458FF4FD491F901E057FF4FC4913A
:1019F000CC2391F081110E94500CEC2FF0E0EE0FFF
:101A0000FF1FEC55FF4FA591B4912C912D2381E040
:101A100090E021F480E002C080E090E0DF91CF917F
:101A200008950E94A514FC01818D228D90E0805CB8
:101A30009F4F821B91098F7399270895FC01918D07
:101A4000828D981731F0828DE80FF11D858D90E021
:101A500008958FEF9FEF0895FC01918D828D981767
:101A600061F0828DDF01A80FB11D5D968C91928D82
:101A70009F5F9F73928F90E008958FEF9FEF08957F
:101A800080EB9EE0892B49F080E090E0892B29F0E3
:101A90000E94B00E81110C9400000895FC01848D09
:101AA000DF01A80FB11DA35ABF4F2C91848D90E088
:101AB00001968F739927848FA689B7892C93A08963
:101AC000B1898C9180648C93938D848D981306C01A
:101AD0000288F389E02D80818F7D80830895CF93E4
:101AE000DF93EC01888D8823C9F0EA89FB89808126
:101AF00085FD05C0A889B9898C9186FD0FC00FB6F8
:101B000007FCF5CF808185FFF2CFA889B9898C9138
:101B100085FFEDCFCE010E944E0DE7CFDF91CF9133
:101B20000895CF92DF92FF920F931F93CF93DF938D
:101B30001F92CDB7DEB76C0181E0D60158968C9329
:101B400058975B969C915B975C968C915C979813E9
:101B500007C05096ED91FC915197808185FD2EC074
:101B6000F601038D10E00F5F1F4F0F731127F02E4A
:101B7000F601848DF81211C00FB607FCF9CFD6011B
:101B80005096ED91FC915197808185FFF1CFC60170
:101B900069830E944E0D6981EBCF838DE80FF11DA3
:101BA000E35AFF4F6083D6015B960C935B97529686
:101BB000ED91FC915397808180620CC0D6015696BE
:101BC000ED91FC91579760835096ED91FC91519760
:101BD00080818064808381E090E00F90DF91CF91DD
:101BE0001F910F91FF90DF90CF900895BF92CF92F9
:101BF000DF92EF92FF92CF93DF93EC016A017B01BA
:101C0000B22EE889F98982E08083411581EE580778
:101C100061057105A1F060E079E08DE390E0A70136
:101C200096010E94531221503109410951095695DC
:101C3000479537952795211580E1380798F0E88971
:101C4000F989108260E874E88EE190E0A7019601BE
:101C50000E94531221503109410951095695479567
:101C600037952795EC85FD853083EE85FF852083AC
:101C7000188EEC89FD89B082EA89FB8980818061B8
:101C80008083EA89FB89808188608083EA89FB8977
:101C9000808180688083EA89FB8980818F7D808351
:101CA000DF91CF91FF90EF90DF90CF90BF9008959C
:101CB0001F920F920FB60F9211242F938F939F9321
:101CC000EF93FF93E091BA02F091BB028081E09123
:101CD000C002F091C10282FD12C090818091C302C6
:101CE0008F5F8F732091C402821751F0E091C3027D
:101CF000F0E0E655FD4F958F8093C30201C08081CF
:101D0000FF91EF919F918F912F910F900FBE0F90A8
:101D10001F9018951F920F920FB60F9211242F93B8
:101D20003F934F935F936F937F938F939F93AF9363
:101D3000BF93EF93FF938AEA92E00E944E0DFF91CA
:101D4000EF91BF91AF919F918F917F916F915F9133
:101D50004F913F912F910F900FBE0F901F901895AC
:101D60008AEA92E00E94130D21E0892B09F420E019
:101D7000822F08951092AD021092AC0288EE93E08B
:101D8000A0E0B0E08093AE029093AF02A093B002C7
:101D9000B093B10281E691E09093AB028093AA02E6
:101DA00085EC90E09093B7028093B60284EC90E0CB
:101DB0009093B9028093B80280EC90E09093BB02BC
:101DC0008093BA0281EC90E09093BD028093BC02B4
:101DD00082EC90E09093BF028093BE0286EC90E08C
:101DE0009093C1028093C0021092C3021092C40269
:101DF0001092C5021092C602089508950E94990B90
:101E00000E94FD0E0E941503C0E4DDE00E948F01D8
:101E10002097E1F30E94400DF9CFCF92DF92EF922D
:101E2000FF920F931F93CF93DF937C016A01EB0125
:101E300000E010E00C151D0571F06991D701ED91DE
:101E4000FC910190F081E02DC7010995892B19F0D3
:101E50000F5F1F4FEFCFC801DF91CF911F910F91FF
:101E6000FF90EF90DF90CF9008956115710581F09C
:101E7000DB010D900020E9F7AD0141505109461BEF
:101E8000570BDC01ED91FC910280F381E02D099468
:101E900080E090E00895DC01ED91FC91DB01149667
:101EA0004D915C9115976D917C910280F381E02DAD
:101EB0000994DC01ED91FC910190F081E02D0994F1
:101EC0006DE671E00C94350F8F929F92AF92BF92A6
:101ED000CF92DF92EF92FF920F931F93CF93DF93F6
:101EE000CDB7DEB7A1970FB6F894DEBF0FBECDBF5A
:101EF0007C01C42EE52FCB01D22E19A221E02D1595
:101F000010F02AE0D22E8E010F5D1F4F8D2C912CE8
:101F1000A12CB12C6C2D7E2FA50194010E9453128F
:101F20008C2DD29E80191124015011098A3014F48D
:101F3000805D01C0895CF801808321153105410570
:101F4000510521F0C22EE32FCA01E4CFB801C70129
:101F50000E94350FA1960FB6F894DEBF0FBECDBF1D
:101F6000DF91CF911F910F91FF90EF90DF90CF9075
:101F7000BF90AF909F908F900895CF92DF92EF9295
:101F8000FF920F931F93CF93DF93EC016A017B01C4
:101F90002115310579F4E881F9810190F081E02D76
:101FA000642FDF91CF911F910F91FF90EF90DF9001
:101FB000CF9009942A303105E9F477FF1AC06DE219
:101FC0000E94590F8C0144275527BA014C195D090D
:101FD0006E097F092AE0CE010E94640F800F911FD5
:101FE000DF91CF911F910F91FF90EF90DF90CF90F5
:101FF00008952AE0B701A601CE01DF91CF911F918C
:102000000F91FF90EF90DF90CF900C94640F0F939F
:102010001F93CF93DF93EC019A01AB01662757FD25
:102020006095762F0E94BD0F8C01CE010E94600F3B
:10203000800F911FDF91CF911F910F9108950F9302
:102040001F93CF93DF93EC010E94370B688779874A
:102050008A879B87E881F9810680F781E02DCE0190
:10206000099597FF15C00E94370B088519852A85A9
:102070003B85601B710B820B930B0C811D812E81A4
:102080003F81601771078207930720F38FEF9FEF5F
:10209000DF91CF911F910F910895EF92FF920F93CF
:1020A0001F93CF93DF93EC018B01E42E6FE671E079
:1020B0000E942A11C8010E941F10FF24E7FCF0941F
:1020C00097FD0BC08E159F0541F0682FCE010E9431
:1020D000A411C8010E941F10F3CFCE01DF91CF9150
:1020E0001F910F91FF90EF9008954F925F926F9222
:1020F0007F92AF92BF92CF92DF92EF92FF920F93B7
:102100001F93CF93DF93CDB7DEB729013A01621B4E
:10211000730B840B950B29893A894B895C892A19A1
:102120003B094C095D09298B3A8B4B8B5C8B9B01DE
:10213000AC0169897A898B899C890E943712E418DD
:10214000F50806091709A80197010E9475122A0DC2
:102150003B1D4C1D5D1DCA01B901DF91CF911F913F
:102160000F91FF90EF90DF90CF90BF90AF907F9056
:102170006F905F904F900895FC01808191810C9445
:102180004C13CF93DF93EC0188819981009711F074
:102190000E944C13198218821D821C821B821A8293
:1021A000DF91CF9108950F931F93CF93DF93EC01AD
:1021B0008B016F5F7F4F888199810E94DB130097AD
:1021C00031F0998388831B830A8381E001C080E01A
:1021D000DF91CF911F910F910895CF93DF93EC0181
:1021E00088819981892B29F08A819B81861797079D
:1021F00060F4CE010E94D310882341F08C819D8130
:10220000892B19F4E881F981108281E0DF91CF9167
:102210000895EF92FF920F931F93CF93DF93EC01FA
:102220007B018A01BA010E94ED10811104C0CE0128
:102230000E94C11007C01D830C83B701888199815A
:102240000E94E514CE01DF91CF911F910F91FF9075
:10225000EF900895FC011182108213821282158280
:1022600014826115710559F0FB0101900020E9F716
:10227000AF0141505109461B570B0C9409110895A9
:10228000CF93DF93EC01FB018617970761F0608124
:1022900071816115710529F0448155810E940911F0
:1022A00002C00E94C110CE01DF91CF910895FC01C0
:1022B0001182108213821282158214820C944011B2
:1022C000CF93DF93EC016115710561F0FB01019083
:1022D0000020E9F7AF0141505109461B570B0E94FE
:1022E000091102C00E94C110CE01DF91CF91089563
:1022F000EF92FF920F931F93CF93DF93EC017B013B
:102300000C811D816115710511F480E016C0411525
:10231000510591F0040F151FB8010E94ED1088239C
:10232000A1F3288139818C819D81B701820F931F90
:102330000E94E5141D830C8381E0DF91CF911F91F2
:102340000F91FF90EF900895CF93DF9300D0CDB71A
:10235000DEB769831A8241E050E0BE016F5F7F4FB4
:102360000E9478110F900F90DF91CF910895FC019A
:10237000248135816217730748F480819181009729
:1023800029F0FC01E60FF71F8081089580E0089591
:102390000C94B711CF93DF93FC018481958148178A
:1023A000590778F4C081D181772767FD7095CE01F8
:1023B000840F951F0E94DA14009719F08C1B9D0B57
:1023C00002C08FEF9FEFDF91CF910895BF92CF9220
:1023D000DF92EF92FF920F931F93CF93DF936C01E5
:1023E0007B01EA0189012417350720F48D2FE901CB
:1023F000042F182F6FE671E0C6010E942A11D70141
:1024000014968D919C911597C817D907C8F4801719
:10241000910708F48C01D701ED91FC911197E00F21
:10242000F11FB08010826D917C916C0F7D1FC601F1
:102430000E946011D701ED91FC91E00FF11FB08275
:10244000C601DF91CF911F910F91FF90EF90DF9028
:10245000CF90BF900895FC0180819181009711F089
:102460000C94AA1460E070E0CB0108950895DB019C
:102470008F939F930E949412BF91AF91A29F800D62
:10248000911DA39F900DB29F900D11240895991B4B
:1024900079E004C0991F961708F0961B881F7A955B
:1024A000C9F780950895A1E21A2EAA1BBB1BFD0156
:1024B0000DC0AA1FBB1FEE1FFF1FA217B307E40723
:1024C000F50720F0A21BB30BE40BF50B661F771F7B
:1024D000881F991F1A9469F760957095809590955B
:1024E0009B01AC01BD01CF010895052E97FB1EF4A1
:1024F00000940E948C1257FD07D00E94531207FCD3
:1025000003D04EF40C948C12509540953095219543
:102510003F4F4F4F5F4F089590958095709561950F
:102520007F4F8F4F9F4F08950E94A512A59F900D3A
:10253000B49F900DA49F800D911D11240895EE0F5E
:10254000FF1F0590F491E02D0994A29FB001B39F65
:10255000C001A39F700D811D1124911DB29F700DAC
:10256000811D1124911D0895CF93DF938230910531
:1025700010F482E090E0E0914903F0914A0320E0FA
:1025800030E0A0E0B0E0309739F140815181481748
:102590005907B8F04817590771F482819381109751
:1025A00029F013969C938E9312972CC090934A0314
:1025B0008093490327C02115310531F04217530795
:1025C00018F0A901DB0101C0EF019A01BD01DF0193
:1025D0000280F381E02DD7CF21153105F9F0281BBA
:1025E000390B2430310580F48A819B816115710596
:1025F00021F0FB019383828304C090934A0380936C
:102600004903FE01329644C0FE01E20FF31F81939D
:10261000919322503109398328833AC0209147038E
:1026200030914803232B41F42091020130910301A2
:10263000309348032093470320910001309101011A
:102640002115310541F42DB73EB740910401509159
:102650000501241B350BE0914703F0914803E21775
:10266000F307A0F42E1B3F0B2817390778F0AC01B5
:102670004E5F5F4F2417350748F04E0F5F1F509392
:102680004803409347038193919302C0E0E0F0E058
:10269000CF01DF91CF910895CF93DF93009709F495
:1026A00087C0FC01329713821282C0914903D091F6
:1026B0004A03209781F420813181280F391F8091AE
:1026C0004703909148038217930779F5F0934803E5
:1026D000E09347036DC0DE0120E030E0AE17BF0796
:1026E00050F412964D915C9113979D01411551053F
:1026F00009F1DA01F3CFB383A28340815181840FC2
:10270000951F8A179B0771F48D919C911197840FE7
:10271000951F02969183808312968D919C911397B9
:10272000938382832115310529F4F0934A03E093C2
:1027300049033EC0D9011396FC93EE9312974D9135
:102740005D91A40FB51FEA17FB0779F48081918191
:10275000840F951F0296D90111969C938E938281C6
:10276000938113969C938E931297E0E0F0E08A8118
:102770009B81009719F0FE01EC01F9CFCE01029682
:1027800028813981820F931F20914703309148039C
:102790002817390769F4309729F410924A031092E8
:1027A000490302C013821282D0934803C0934703A7
:1027B000DF91CF910895A0E0B0E0E1EEF3E10C9459
:1027C0000515EC01CB01209719F40E94B412B8C092
:1027D000FE01E60FF71F9E0122503109E217F307B1
:1027E00008F4ACC0D9010D911C9111970617170779
:1027F000B8F00530110508F49FC0A80144505109F4
:102800004617570708F498C002501109061B170B0A
:10281000019311936D937C93CF010E944C138CC054
:102820005B01A01AB10A4E01800E911EA0914903CE
:10283000B0914A03612C712C60E070E0109709F4AC
:1028400049C0A815B905C9F5ED90FC90119767012D
:1028500042E0C40ED11CCA14DB0478F147018A1887
:102860009B08640142E0C40ED11C1296BC901297E2
:102870001396AC91B5E0CB16D10440F0B282A3839D
:1028800091828082D9018D939C9309C00E5F1F4F66
:102890000E0D1F1DF90111830083EB2DFA2F611519
:1028A000710531F0DB011396FC93EE93129744C04F
:1028B000F0934A03E09349033FC06D917C911197D7
:1028C0006616770608F43B01BD0112960D90BC9187
:1028D000A02DB4CF60914703709148036815790526
:1028E000E9F468167906D0F4409100015091010195
:1028F0004115510541F44DB75EB7609104017091E7
:102900000501461B570BE417F507C0F4F093480385
:10291000E0934703F901918380830EC00E94B412B3
:102920007C01009759F0A801BE010E94D114CE018C
:102930000E944C13C70104C0CE0102C080E090E0A9
:10294000CDB7DEB7EEE00C94211581E090E0F8946D
:102950000C9438151F93FC0199278827BC01E89433
:1029600011911032E9F3193010F01E30C8F31B3208
:1029700051F01D3249F4689406C00E94EC14610FB6
:10298000711D811D911D119110531A30B0F33EF449
:1029900090958095709561957F4F8F4F9F4F1F91B8
:1029A0000895FB01DC0102C001900D92415050409E
:1029B000D8F70895FC018191861721F08823D9F773
:1029C000992708953197CF010895FB01DC0101900B
:1029D0000D920020E1F70895592F482F372F262F09
:1029E000660F771F881F991F660F771F881F991F13
:1029F000620F731F841F951F660F771F881F991F13
:102A000008952F923F924F925F926F927F928F9292
:102A10009F92AF92BF92CF92DF92EF92FF920F936D
:102A20001F93CF93DF93CDB7DEB7CA1BDB0B0FB677
:102A3000F894DEBF0FBECDBF09942A883988488834
:102A40005F846E847D848C849B84AA84B984C884CA
:102A5000DF80EE80FD800C811B81AA81B981CE0FC1
:102A6000D11D0FB6F894DEBF0FBECDBFED010895A6
:042A7000F894FFCF08
:102A740000004B03800001000000014572726F7278
:102A84003A204661696C656420746F207072696EC7
:102A940074004E6F7420736574757021000000001B
:102AA4000098050D0F010696059705110D0000000D
:102AB4000098050D0F96077A068E06780700000029
:102AC400000908DC07B107B907CC07DB07000000E1
:102AD40000910D0D0F130D2C0D1E0D6F0D0D0A0021
:0E2AE4006E616E00696E66006F7666002E00F1
:00000001FF
