:100000000C9462000C948A000C948A000C948A0070
:100010000C948A000C948A000C948A000C948A0038
:100020000C948A000C948A000C948A000C94450568
:100030000C948A000C948A000C948A000C948A0018
:100040000C94EC020C948A000C9465020C943F0210
:100050000C948A000C948A000C948A000C948A00F8
:100060000C9406060C948A0000000000240027006F
:100070002A0000000000250028002B0000000000DE
:1000800023002600290004040404040404040202DA
:100090000202020203030303030301020408102007
:1000A0004080010204081020010204081020000012
:1000B0000008000201000003040700000000000027
:1000C0000000EF0D11241FBECFEFD8E0DEBFCDBF83
:1000D00011E0A0E0B1E0EEE3F3E202C005900D9282
:1000E000A036B107D9F723E0A0E6B1E001C01D9228
:1000F000AD30B207E1F710E0C2E6D0E004C02197CE
:10010000FE010E94AA0EC136D107C9F70E949C0ABF
:100110000C949D110C940000FC01918D828D981718
:1001200061F0828DDF01A80FB11D5D968C91928DDB
:100130009F5F9F73928F90E008958FEF9FEF0895D8
:10014000FC01918D828D981731F0828DE80FF11DA1
:10015000858D90E008958FEF9FEF0895FC01918DBC
:10016000228D892F90E0805C9F4F821B91098F73B5
:10017000992708958EEF91E00E94AE0021E0892B2F
:1001800009F420E0822F0895FC01848DDF01A80F7F
:10019000B11DA35ABF4F2C91848D90E001968F73AF
:1001A0009927848FA689B7892C93A089B1898C91CE
:1001B00080648C93938D848D981306C00288F38994
:1001C000E02D80818F7D80830895EF92FF920F93C1
:1001D0001F93CF93DF93EC0181E0888F9B8D8C8DF3
:1001E000981305C0E889F989808185FD24C0F62E21
:1001F0000B8D10E00F5F1F4F0F731127E02E8C8DBA
:10020000E8120CC00FB607FCFACFE889F9898081A3
:1002100085FFF5CFCE010E94C400F1CF8B8DFE018A
:10022000E80FF11DE35AFF4FF0820B8FEA89FB893B
:100230008081806207C0EE89FF896083E889F9893F
:1002400080818064808381E090E0DF91CF911F9175
:100250000F91FF90EF900895CF93DF93EC01888D7D
:100260008823C9F0EA89FB89808185FD05C0A889BA
:10027000B9898C9186FD0FC00FB607FCF5CF808140
:1002800085FFF2CFA889B9898C9185FFEDCFCE018A
:100290000E94C400E7CFDF91CF91089580E090E005
:1002A000892B29F00E94BA0081110C940000089556
:1002B000833081F028F4813099F08230A1F00895E4
:1002C0008730A9F08830B9F08430D1F48091800073
:1002D0008F7D03C0809180008F7780938000089588
:1002E00084B58F7702C084B58F7D84BD08958091D9
:1002F000B0008F7703C08091B0008F7D8093B000F5
:100300000895CF93DF9390E0FC01E656FF4F2491D0
:10031000FC01EA57FF4F8491882361F190E0880F38
:10032000991FFC01E859FF4FC591D491FC01EE588B
:10033000FF4FA591B491611109C09FB7F8948881CE
:10034000209582238883EC912E230BC0623061F4C8
:100350009FB7F8943881822F809583238883EC910E
:100360002E2B2C939FBF06C08FB7F894E8812E2BBD
:1003700028838FBFDF91CF91089521E001C0220F24
:100380006A95EAF7DC011C962C931C971A965C93ED
:100390004E931997ED91FC910084F185E02D60E07A
:1003A00009940E94A710EF92FF920F931F93CF938F
:1003B0008C01FC01759684E0C0E060FF02C0908172
:1003C000C92B6695815031968111F7CF413011F4D8
:1003D000F8014489F8018585C82BC42B7801FEE01B
:1003E000EF0EF11CF80162896C2BC7010E94C20458
:1003F000F801628960956C23C701CF911F910F911D
:10040000FF90EF900C94C2040F931F93CF93DF9350
:10041000062F0F70423019F440E0602F10C0142FE7
:10042000262FEC0130E0B90184E0759567958A9537
:10043000E1F7CE010E94D301412F602FCE01DF9161
:10044000CF911F910F910C94D301FC0184858823D7
:10045000A9F0218532852115310519F4611106C0F5
:1004600007C02130310521F4611102C0858701C028
:1004700015866585CF010E960C94C20408951F92CF
:100480000F920FB60F9211242F933F934F935F93C8
:100490006F937F938F939F93AF93BF93EF93FF934C
:1004A0008EEF91E00E94C400FF91EF91BF91AF9158
:1004B0009F918F917F916F915F914F913F912F917C
:1004C0000F900FBE0F901F9018951F920F920FB6AE
:1004D0000F9211242F938F939F93EF93FF93E091AB
:1004E0000E02F0910F028081E0911402F09115024A
:1004F00082FD12C09081809117028F5F8F732091CF
:100500001802821751F0E0911702F0E0E250FE4F1E
:10051000958F8093170201C08081FF91EF919F9189
:100520008F912F910F900FBE0F901F9018951F93D2
:10053000CF93DF93282F30E0F901E255FF4F8491EC
:10054000F901E656FF4FD491F901EA57FF4FC491E4
:10055000CC23C9F0162F81110E945801EC2FF0E036
:10056000EE0FFF1FEE58FF4FA591B4918FB7F8948F
:10057000111105C09C91ED2FE095E92302C0EC918B
:10058000ED2BEC938FBFDF91CF911F9108953FB773
:10059000F8948091610190916201A0916301B09102
:1005A000640126B5A89B05C02F3F19F00196A11D37
:1005B000B11D3FBFBA2FA92F982F8827820F911DF9
:1005C000A11DB11DBC01CD0142E0660F771F881F40
:1005D000991F4A95D1F708951F920F920FB60F9267
:1005E00011242F933F938F939F93AF93BF93809149
:1005F000FA019091FB01A091FC01B091FD013091B5
:10060000600123E0230F2D3720F40196A11DB11DB9
:1006100005C026E8230F0296A11DB11D209360019D
:100620008093FA019093FB01A093FC01B093FD012C
:100630008091610190916201A0916301B091640188
:100640000196A11DB11D8093610190936201A09359
:100650006301B0936401BF91AF919F918F913F91DE
:100660002F910F900FBE0F901F901895DC01ED9108
:10067000FC910284F385E02D41E0099581E090E052
:1006800008950895089585ED8093BC008091BC0085
:1006900084FDFCCF1092D501089540918701262F4B
:1006A00030E0240F311D21323105DCF42091D501D9
:1006B0002430C9F4FC0180E090E0861758F43091B2
:1006C00087012191DC01AB59BE4FA30FB11D2C93C3
:1006D0000196F3CF80918701680F6093870180E0D6
:1006E000089581E0089582E00895089581E090E002
:1006F0003091AE012091AD01321710F480E090E00E
:1007000091958195910908958091AE019091AD01E7
:10071000891730F48F5F8093AE0180E090E00895F8
:100720008FEF9FEF08958091AD0190E02091AE0191
:10073000821B91090895CF92DF92EF92FF920F935F
:100740001F93CF93DF937C01262F972F8A018091EF
:10075000D601882391F0C62FD72F6E01C40ED51E67
:10076000CC15DD0571F06991D701ED91FC910190F7
:10077000F081E02DC7010995F3CF642F822F0E94ED
:100780004D03C801DF91CF911F910F91FF90EF9022
:10079000DF90CF900895CF93DF931F92CDB7DEB750
:1007A00069832091D6012223D1F02091F9012032D2
:1007B00040F021E030E0FC013383228380E090E0D0
:1007C00015C08091D701E82FF0E0E852FE4F9981E3
:1007D00090838F5F8093D7018093F90105C061E01A
:1007E000CE0101960E944D0381E090E00F90DF91D1
:1007F000CF910895DC01ED91FC910284F385E02D09
:1008000040E009948F929F92AF92BF92CF92DF9275
:10081000EF92FF920F931F93CF93DF93EC0142303F
:1008200018F08C8188608C834F836887222329F09D
:10083000413019F48C8184608C830E94C7024B0183
:100840005C0184E6C82ED12CE12CF12C0E94C70259
:10085000DC01CB0188199909AA09BB09883E93409C
:10086000A105B10558F021E0C21AD108E108F1084C
:1008700088EE880E83E0981EA11CB11CC114D1041F
:10088000E104F10419F76C8164FD31C0E881F9815C
:100890000284F385E02D42E063E0CE0109958BE40C
:1008A00096E40197F1F7E881F9810284F385E02D60
:1008B00042E063E0CE01099503E512E0C80101972B
:1008C000F1F7E881F9810284F385E02D42E063E0ED
:1008D000CE010995C8010197F1F7E881F9810284F9
:1008E000F385E02D42E062E0CE01099517C0606219
:1008F000CE010E94FA038BE496E40197F1F76C8134
:100900006062CE010E94FA0303E512E0C80101977C
:10091000F1F76C816062CE010E94FA03C801019771
:10092000F1F76C816062CE010E94FA038BEE90E0D9
:100930000197F1F784E08D836CE0CE010E94FA0309
:1009400061E0CE010E94FA038BE39FE10197F1F78A
:1009500082E08E8366E0CE010E94FA03E881F9818D
:100960000084F185E02D6FEFCE01DF91CF911F91D3
:100970000F91FF90EF90DF90CF90BF90AF909F903E
:100980008F900994FC0123812223B9F091819095E5
:1009900069236083828191E09093D6018093F8016E
:1009A0001092D7011092F9018BE992E00E94CB03DB
:1009B0000E94CF08282F30E002C020E030E081E024
:1009C00090E0232B11F080E090E00895EF92FF92E9
:1009D0000F931F93CF93DF93EC01062FF42EE22E9B
:1009E0008B85888B1092AE011092AD011092D701C9
:1009F0001092F9011092D50111E01093D4011092D8
:100A0000AF0161E082E10E94970261E083E10E9410
:100A100097028091B9008E7F8093B9008091B900D0
:100A20008D7F8093B90088E48093B80085E480933B
:100A3000BC0088891093D6018093F8011092D701E9
:100A40001092F9010E94CF0891E0811190E0998BFA
:100A5000992329F08BE992E00E9484038E8789898B
:100A6000882339F01F861C8260E0CE010E960E941A
:100A7000C2042E2D4F2D602FCE01DF91CF911F91FB
:100A80000F91FF90EF900C9402041F920F920FB6FB
:100A90000F9211242F933F934F935F936F937F9304
:100AA0008F939F93AF93BF93EF93FF938091AC018C
:100AB00087FF05C010928500109284001BC0209112
:100AC000AC01022E000C330B8091CB0290E0281772
:100AD000390784F48091AC01082E000C990BFC01BD
:100AE000EE0FFF1F8E0F9F1FFC01E955FD4F808108
:100AF00086FD15C08091AC018F5F8093AC01209181
:100B0000AC01022E000C330B8091CB0290E0281731
:100B10003907C4F48091AC018C3064F113C080912A
:100B2000AC01082E000C990BFC01EE0FFF1F8E0F7D
:100B30009F1FFC01E955FD4F808160E08F730E948B
:100B40009702D8CF809184009091850004968034DC
:100B50009C4918F480E49CE905C080918400909140
:100B60008500049690938900809388008FEF80938E
:100B7000AC013BC020918400309185008091AC0194
:100B8000082E000C990BFC01EE0FFF1F8E0F9F1F0C
:100B9000FC01E955FD4F81819281820F931F909353
:100BA0008900809388008091AC01082E000C990B7D
:100BB000FC01EE0FFF1F8E0F9F1FFC01E955FD4F3B
:100BC000808186FF12C08091AC01082E000C990B29
:100BD000FC01EE0FFF1F8E0F9F1FFC01E955FD4F1B
:100BE000808161E08F730E949702FF91EF91BF9126
:100BF000AF919F918F917F916F915F914F913F91B5
:100C00002F910F900FBE0F901F9018951F920F926B
:100C10000FB60F9211242F933F934F935F936F93CF
:100C20007F938F939F93AF93BF93EF93FF938091A5
:100C3000B900887F803609F49CC068F5883209F4D1
:100C40005BC090F4803109F454C038F4882309F46F
:100C5000F6C0883009F44DC0F6C0883109F44CC0A4
:100C6000803209F45DC0EFC0803409F468C048F4F4
:100C7000803309F455C0883309F0E5C08093D3016F
:100C8000D8C0803509F44FC0883509F45DC0883478
:100C900009F0D9C0D6C0883909F4C7C0A8F488378C
:100CA00009F467C038F4883609F463C0803709F462
:100CB00060C0C9C0883809F4B8C0803909F45FC081
:100CC000803809F0C0C05BC0803B09F486C038F4AE
:100CD000803A09F466C0883A09F47FC0B4C0803C09
:100CE00009F4A7C0883C09F4A4C0883B09F48AC071
:100CF000AAC08091B00110C09091D2018091D10121
:100D0000981770F5E091D20181E08E0F8093D201A7
:100D1000F0E0EF54FE4F80818093BB0085EC86C0ED
:100D20008093D3018EC0E091D20181E08E0F809339
:100D3000D2018091BB00F0E0EF54FE4F8083909190
:100D4000D2018091D1016EC0E091D20181E08E0F7D
:100D50008093D2018091BB00F0E0EF54FE4F80837E
:100D60008091D40181116DC081E08093AF0184EA4C
:100D700061C083E08093D5011092AB01CFCF809109
:100D8000AB01803208F051C0E091AB0181E08E0FE1
:100D90008093AB018091BB00F0E0E557FE4F80836C
:100DA000BDCF85EC8093BC001092D5018091AB0142
:100DB000803230F4E091AB01F0E0E557FE4F108255
:100DC0006091AB0170E0E0918901F0918A018BE8BC
:100DD00091E009951092AB0136C084E08093D50173
:100DE0001092880110928701E0918501F0918601AF
:100DF000099580918701811105C081E08093870169
:100E000010926501E091880181E08E0F8093880146
:100E1000F0E0EB59FE4F80818093BB0090918801F8
:100E200080918701981708F479CF85E88093BC00FA
:100E30000AC085EC8093BC001092D50104C01092CA
:100E4000D3010E944303FF91EF91BF91AF919F9116
:100E50008F917F916F915F914F913F912F910F9063
:100E60000FBE0F901F9018958F929F92AF92BF92D6
:100E7000CF92DF92EF92FF920F931F93CF93DF9366
:100E800000D000D000D0CDB7DEB77C0161E080EFAC
:100E900092E00E94FA038BE39FE10197F1F780E073
:100EA0000E940108F701A480B580F1E2AF16B104F9
:100EB0005CF068E471E0CE0101960E94B909CE01B0
:100EC00001960E94340752C081E1A816B10424F4AF
:100ED000C7010E94F8074EC0F7018080918060E250
:100EE00070E0C4010E94B510009721F08C01081930
:100EF000190915C00FEF1FEF12C0C80101968A151E
:100F00009B0588F460E270E0880D991D0E94B51081
:100F1000009749F0FC01E819F90968018F010131D6
:100F200011055CF303C0EFEFFFEFF7CF960140E050
:100F300050E0B701CE0101960E94CE09CE01019684
:100F40000E94F807CE0101960E949A0981E00E9452
:100F50000108A6014F5F5F4F9501B701CE010196D1
:100F60000E94CE09CE0101960E94F807CE0101969B
:100F70000E949A0926960FB6F894DEBF0FBECDBF29
:100F8000DF91CF911F910F91FF90EF90DF90CF9065
:100F9000BF90AF909F908F900895CF92DF92EF9285
:100FA000FF920F931F93CF93DF936C017A018B0114
:100FB000C0E0D0E0CE15DF0589F0D8016D918D013C
:100FC000D601ED91FC910190F081E02DC6010995CB
:100FD000892B11F47E0102C02196ECCFC701DF916D
:100FE000CF911F910F91FF90EF90DF90CF900895D8
:100FF000FC01448155816081718180EF92E00C9405
:10100000CD07CF93DF93CDB7DEB728970FB6F8940F
:10101000DEBF0FBECDBF1D8290E49E8324E12F83EF
:1010200024E5288719829A8390E19B8390E59C832D
:101030002091F702821710F08FEF820F3091F802A3
:1010400090E0FE01E80FF91F303121F4243011F453
:10105000618101C06581606880EF92E028960FB6DB
:10106000F894DEBF0FBECDBFDF91CF910C94FA0391
:101070008F929F92AF92BF920F931F93CF93DF9364
:10108000CDB7DEB7A1970FB6F894DEBF0FBECDBFC8
:1010900019A2423008F44AE08E010F5D1F4F842EE2
:1010A000912CA12CB12CA50194010E946C11E62F6A
:1010B000B901CA0101501109EA3014F4E05D01C020
:1010C000E95CD801EC93232B242B252B61F7011528
:1010D000110571F0F80101900020E9F73197AF0197
:1010E000401B510BB8018EEF91E00E94CD0702C06A
:1010F00080E090E0A1960FB6F894DEBF0FBECDBFA2
:10110000DF91CF911F910F91BF90AF909F908F90E3
:1011100008952FB7F8948091FA019091FB01A09166
:10112000FC01B091FD012FBF80930602909307024E
:10113000A0930802B0930902E091FE01F091FF0133
:101140000680F781E02D8EEF91E0099597FF26C08C
:101150002FB7F8948091FA019091FB01A091FC01C6
:10116000B091FD012FBF409106025091070260919E
:10117000080270910902841B950BA60BB70B4091D6
:1011800002025091030260910402709105028417DB
:101190009507A607B70780F28FEF9FEF089520917C
:1011A000F9019091F801213208F04AC08091D501EF
:1011B0008111FCCF32E03093D50131E03093D4017E
:1011C0003FEF3093D3011092D2012093D101A8EDCB
:1011D000B1E041EB51E0FA013E2F341B321718F415
:1011E0003D913193F9CF1092B0012091B001990F48
:1011F000922B9093B0019091AF01913061F41092D5
:10120000AF019091B0019093BB009091BC0093FD11
:10121000F8CF95EC01C095EE9093BC009091D5016C
:101220009230E1F39091D3019F3F79F08091D30107
:10123000803241F08091D301803331F084E005C0E9
:1012400081E003C082E001C083E01092D7011092D8
:10125000F9011092D6010895FC01808191810097D7
:1012600011F00C94C71060E070E0CB010895FC0110
:10127000248135816217730748F48081918100973A
:1012800029F0FC01E60FF71F8081089580E00895A2
:101290000F931F93CF93DF93EC018881998100977F
:1012A00029F02A813B812617370788F48B016F5F6D
:1012B0007F4F0E94DD0F009761F0998388831B8325
:1012C0000A832C813D81232B11F4FC01108281E0E3
:1012D00001C080E0DF91CF911F910F910895EF92AF
:1012E000FF920F931F93CF93DF93EC017B018A0151
:1012F000BA010E9448092881398181110DC0211548
:10130000310519F0C9010E94450F198218821D820A
:101310001C821B821A8206C01D830C83B701C9017F
:101320000E94C010CE01DF91CF911F910F91FF90CD
:10133000EF900895FC01808191810C94450FFB0191
:10134000DC0111961C921E9213961C921E9212970B
:1013500015961C921E9214978617970749F0608184
:1013600071816115710521F0448155810C946F09DB
:101370000895FC0111821082138212821582148258
:101380006115710551F0FB0101900020E9F73197DB
:10139000AF01461B570B0C946F090895BF92CF9273
:1013A000DF92EF92FF920F931F93CF93DF937C0115
:1013B0006B01EA0189012417350720F48D2FE9011B
:1013C000042F182F67E471E0C7010E94B909D60104
:1013D00014968D919C911597C817D907C8F5801759
:1013E000910708F48C01D601ED91FC911197E00F63
:1013F000F11FB08010824D915C91BA016C0F7D1F7E
:101400006115710561F0FB0101900020E9F731974A
:10141000AF01461B570BC7010E946F0913C0F701AC
:1014200080819181009711F00E94450FD70111969C
:101430001C921E9215961C921E92149713961C9243
:101440001E921297D601ED91FC91E00FF11FB08230
:10145000C701DF91CF911F910F91FF90EF90DF9027
:10146000CF90BF9008952F923F924F925F926F92CC
:101470007F928F929F92AF92BF92CF92DF92EF9224
:10148000FF920F931F93CF93DF935C014B012A01CF
:10149000FB010481158101501109612C712CCC24B0
:1014A000CA94DC2C212C312CE12CF12CE301061503
:1014B000170534F14E145F04E4F0BE01C4010E942C
:1014C00037099E012F5F3F4F8A3329F0C017D1079C
:1014D00011F0E6010BC0FFEFEF1AFF0A16018FEFC4
:1014E000281A380A6016710609F4E90139016E01FB
:1014F000DDCF9601A101B401C5010E94CE0908C04B
:101500004E145F04B4F367E471E0C5010E94B909A9
:10151000C501DF91CF911F910F91FF90EF90DF9068
:10152000CF90BF90AF909F908F907F906F905F9083
:101530004F903F902F900895CF93DF93CDB7DEB7B4
:1015400062970FB6F894DEBF0FBECDBF789484B516
:10155000826084BD84B5816084BD85B5826085BDAF
:1015600085B5816085BD80916E00816080936E003D
:10157000109281008091810082608093810080912F
:1015800081008160809381008091800081608093E0
:1015900080008091B10084608093B1008091B000A0
:1015A00081608093B00080917A00846080937A009B
:1015B00080917A00826080937A0080917A008160C5
:1015C00080937A0080917A00806880937A001092EC
:1015D000C10020E042E060E180EF92E00E94E6047A
:1015E000E091F002F091F1020084F185E02D6FEFBF
:1015F00080EF92E0099580E00E9401086AE371E0C3
:10160000CE0101960E94B909CE0101960E943407CD
:10161000CE0101960E949A09E0910E02F0910F020C
:1016200082E08083E0910A02F0910B021082E09147
:101630000C02F0910D0280E1808310921602E0917D
:101640001202F091130286E08083E0911002F09183
:101650001102808180618083E0911002F09111027B
:10166000808188608083E0911002F0911102808176
:1016700080688083E0911002F091110280818F7D5B
:1016800080832CE0222E38E8832E912C48E5C42E4E
:1016900042E0D42E67E471E0CE010D960E94B909B4
:1016A0000E94890897FD1EC08A309105D9F0898370
:1016B0001A8209891A890F5F1F4FB801CE010D9652
:1016C0000E944809882361F32D853E8589899A897E
:1016D000BE016F5F7F4F820F931F0E94C0101A8B55
:1016E000098BDECF60E070E0CE010D960E943709D5
:1016F000823509F43AC124F4843409F445C268C23D
:10170000833509F48DC1873509F062C2BE01635F7C
:101710007F4FCE0107960E949F0942E050E0BE0134
:10172000695F7F4FCE0101960E94330ACE01019678
:101730000E942C09B62EA72ECE0101960E949A096E
:10174000CE0107960E949A09BE01635F7F4FCE01CA
:1017500007960E949F0943E050E0BE01695F7F4FFA
:10176000CE0101960E94330ACE0101960E942C09F7
:10177000762E672E062F172F7801CE0101960E9434
:101780009A09CE0107960E949A0962E070E0CE01A4
:101790000D960E943709843411F4672D59C08134A5
:1017A00009F05AC061E08B2D0E94810101151105DD
:1017B00009F44BC00F3F110509F449C0EB2DF0E0CF
:1017C000E255FF4FE491E33009F148F4E130C9F00C
:1017D000E230C1F584B5806284BD78BCF9C1E730E0
:1017E00009F1E83039F1E43069F5809180008062D8
:1017F00080938000872D962D90938B0080938A0094
:10180000E7C184B5806884BD77BCE2C18091800067
:10181000806880938000872D962D90938900809317
:101820008800D6C18091B00080688093B00070922B
:10183000B300CEC18091B00080628093B0007092FE
:10184000B400C6C10038110514F460E001C061E0C5
:101850008B2D0E949702BCC1833509F0B9C10B2DB5
:101860001A2D5801AA0CBB1C20E2E21622E0F20657
:101870000CF043C0F7FC08C035EBE316F10434F07C
:1018800084EBE82EF12C02C0E12CF12CF501E00FE5
:10189000F11FE453FD4F81819401281B310987FD1D
:1018A0003395220F331F220F331F2901330F660890
:1018B000770882819601281B310987FD3395220F15
:1018C000331F220F331FC901330FAA0BBB0B9C011F
:1018D000AD012419350946095709D7010E942D1178
:1018E00024EB30E040E050E00E940311DA01C9012E
:1018F000840D951DA61DB71D7C010A0D1B1DF80149
:10190000E453FD4F20812C3008F062C18181A40195
:10191000481B510987FD5395CA01880F991F880FED
:10192000991FE816F9067CF08281A601481B51092F
:1019300087FD5395440F551F440F551FC7014E1582
:101940005F050CF4CA010297880F991F4FB7F894EE
:1019500030E0F901EE0FFF1F2E0F3F1FF901E9558F
:10196000FD4F928381834FBF33C1BE01635F7F4FC1
:10197000CE0107960E949F0942E050E0BE01695FD8
:101980007F4FCE0101960E94330ACE0101960E943C
:101990002C09162FCE0101960E949A09CE010796B6
:1019A0000E949A0962E070E0CE010D960E9437090C
:1019B000843409F035C0612F70E0FB01E255FF4F20
:1019C0008491FB01E656FF4F1491FB01EA57FF4F4C
:1019D00004910023A1F081110E945801E02FF0E052
:1019E000EE0FFF1FE458FF4FA591B491EC911E2319
:1019F00091E080E009F490E0692F782F02C060E068
:101A000070E0072E000C880B990B4AE00E94380802
:101A100042E050E065E471E08EEF91E00E94CD0776
:101A200062E070E0CE010D960E943709182FBE01CA
:101A3000635F7F4FCE0107960E949F0942E050E00E
:101A4000BE01695F7F4FCE0101960E94330ACE012D
:101A500001960E942C09F62EE72ECE0101960E94D7
:101A60009A09CE0107960E949A09BE01635F7F4FD3
:101A7000CE0107960E949F0943E050E0BE01695FD6
:101A80007F4FCE0101960E94330ACE0101960E943B
:101A90002C09362ECE0101960E949A09CE01079696
:101AA0000E949A09103529F4632D8F2D0E9481011F
:101AB0008FC0133509F08CC00F2D1E2D5801AA0CB4
:101AC000BB1CC501800F911FFC01E453FD4F7F013A
:101AD00080818C3008F07CC061E0832D0E94810100
:101AE000F7018081282F30E0A901440F551F240FF2
:101AF000351FF901E955FD4F232D2F739081907CFF
:101B0000922B9083F70111821282622D0E949E0E09
:101B10002CE0829FF001112440E050E09A012E0F4A
:101B20003F1FB901660F771F260F371FD901A9552F
:101B3000BD4F9C9196FD16C04F5F5F4F4C305105D5
:101B400069F781110FC01092800032E0309381005C
:101B50001092850010928400B19A80916F0082608B
:101B600080936F000A0D1B1DF801E453FD4FE081C7
:101B7000F0E0CF01880F991FE80FF91FE955FD4FDD
:101B800080818064808324C062E070E0CE010D9685
:101B90000E9437098435E1F4BE01635F7F4FCE01B7
:101BA00007960E949F0942E050E0BE01695F7F4FA7
:101BB000CE0101960E94330ACE0101960E9434079D
:101BC000CE0101960E949A09CE0107960E949A09B9
:101BD000CE010D960E949A090E944E015BCD109293
:101BE00001021092000288EE93E0A0E0B0E0809342
:101BF000020290930302A0930402B09305022EE028
:101C000031E03093FF012093FE0125EC30E030936A
:101C10000B0220930A0224EC30E030930D02209353
:101C20000C0220EC30E030930F0220930E0221ECE6
:101C300030E0309311022093100222EC30E0309318
:101C400013022093120226EC30E030931502209309
:101C50001402109217021092180210921902109298
:101C60001A0210929E0210929D0280939F029093FE
:101C7000A002A093A102B093A2028EE191E0909302
:101C80009C0280939B021092F3021092F2028EE269
:101C900091E09093F1028093F002109200038FEF95
:101CA0008093FF021092FE021092010387E280935C
:101CB000FB021092FC021092FD021092FA021092A6
:101CC000F90284E08093020382E08093030381E0C1
:101CD0008093040380E18093050380E280930603F0
:101CE00080E48093070380E88093080340E050E09D
:101CF00063E080EF92E00E94BD018091CB02ACECEA
:101D0000B2E09FEF48EB5BE08C3078F48C93282FA7
:101D100030E0F901EE0FFF1F2E0F3F1FF901E955CB
:101D2000FD4F528341838F5F01C09C93139622E045
:101D3000A03FB20749F78093CB020895991B79E041
:101D400004C0991F961708F0961B881F7A95C9F74B
:101D500080950895EE0FFF1F0590F491E02D0994F2
:101D6000CF93DF938230910510F482E090E0E09110
:101D70000B03F0910C0320E030E0C0E0D0E030979E
:101D800011F14081518148175907C0F04817590790
:101D900061F482819381209719F09B838A832BC001
:101DA00090930C0380930B0326C02115310519F085
:101DB0004217530718F49A01BE01DF01EF010280B8
:101DC000F381E02DDCCF2115310509F1281B390BFA
:101DD0002430310590F412968D919C9113976115E2
:101DE000710521F0FB019383828304C090930C035F
:101DF00080930B03FD01329644C0FD01E20FF31FF7
:101E000081939193225031092D933C933AC02091B4
:101E1000090330910A03232B41F4209102013091F0
:101E2000030130930A0320930903209100013091AC
:101E300001012115310541F42DB73EB74091040150
:101E400050910501241B350BE0910903F0910A0321
:101E5000E217F307A0F42E1B3F0B2817390778F081
:101E6000AC014E5F5F4F2417350748F04E0F5F1FE0
:101E700050930A03409309038193919302C0E0E0D9
:101E8000F0E0CF01DF91CF9108950F931F93CF938F
:101E9000DF93009709F48CC0FC0132971382128201
:101EA00000910B0310910C030115110581F42081A1
:101EB0003181820F931F2091090330910A03281763
:101EC000390779F5F0930A03E093090371C0D8014B
:101ED00040E050E0AE17BF0750F412962D913C91B0
:101EE0001397AD012115310509F1D901F3CF9D01FA
:101EF000DA013383228360817181860F971F8217F5
:101F0000930769F4EC0128813981260F371F2E5F72
:101F10003F4F318320838A819B8193838283452B2A
:101F200029F4F0930C03E0930B0342C01396FC9347
:101F3000EE931297ED01499159919E01240F351F9F
:101F4000E217F30771F480819181840F951F029647
:101F500011969C938E938281938113969C938E937A
:101F60001297E0E0F0E0D80112968D919C911397C2
:101F7000009719F0F8018C01F6CF8D919C91980192
:101F80002E5F3F4F820F931F2091090330910A0368
:101F90002817390769F4309729F410920C0310922E
:101FA0000B0302C01382128210930A0300930903E9
:101FB000DF91CF911F910F910895A0E0B0E0E3EE83
:101FC000FFE00C943911EC01009721F4CB010E9441
:101FD000B00EB8C0FC01E60FF71F9C01225031097A
:101FE000E217F30708F4ACC0D9010D911C911197C9
:101FF00006171707B0F00530110508F49FC0C80197
:1020000004978617970708F499C002501109061B18
:10201000170B019311936D937C93CF010E94450F91
:102020008DC05B01A01AB10A4C01800E911EA091D7
:102030000B03B0910C0340E050E0E12CF12C109721
:1020400009F44AC0A815B905D1F56D907C90119797
:10205000630182E0C80ED11CCA14DB0480F1A30125
:102060004A195B096A0182E0C80ED11C1296BC9025
:1020700012971396AC91B5E0CB16D10440F0B28222
:10208000A38351834083D9016D937C930AC00E5F73
:102090001F4FC301800F911FF90191838083EB2DA6
:1020A000FA2FE114F10431F0D7011396FC93EE936B
:1020B000129744C0F0930C03E0930B033FC08D9143
:1020C0009C9111974817590708F4AC017D011296AD
:1020D0000D90BC91A02DB3CF8091090390910A037C
:1020E00088159905E1F446175707C8F48091000157
:1020F00090910101009741F48DB79EB74091040182
:1021000050910501841B950BE817F907C8F4F0936B
:102110000A03E0930903F901718360830FC0CB01C7
:102120000E94B00E7C01009759F0A801BE010E94E8
:10213000AC10CE010E94450FC70104C0CE0102C001
:1021400080E090E0CDB7DEB7EEE00C94551181E071
:1021500090E0F8940C949D11FB01DC0102C0019009
:102160000D9241505040D8F70895FC018191861797
:1021700021F08823D9F7992708953197CF01089541
:10218000FB01DC0101900D920020E1F708951F93FF
:10219000FC0199278827BC01E89411911032E9F3DA
:1021A000193010F01E30C8F31B3251F01D3249F4C3
:1021B000689406C00E94EE10610F711D811D911D73
:1021C000119110531A30B0F33EF4909580957095AC
:1021D00061957F4F8F4F9F4F1F910895592F482F23
:1021E000372F262F660F771F881F991F660F771FBF
:1021F000881F991F620F731F841F951F660F771F1B
:10220000881F991F0895052E97FB1EF400940E94C5
:102210001A1157FD07D00E946C1107FC03D04EF431
:102220000C941A1150954095309521953F4F4F4F82
:102230005F4F089590958095709561957F4F8F4F72
:102240009F4F08950E948E11A59F900DB49F900DF1
:10225000A49F800D911D11240895B7FF0C942211A5
:102260000E942211821B930B08952F923F924F924E
:102270005F926F927F928F929F92AF92BF92CF9216
:10228000DF92EF92FF920F931F93CF93DF93CDB71F
:10229000DEB7CA1BDB0B0FB6F894DEBF0FBECDBF97
:1022A00009942A88398848885F846E847D848C8468
:1022B0009B84AA84B984C884DF80EE80FD800C8171
:1022C0001B81AA81B981CE0FD11D0FB6F894DEBF54
:1022D0000FBECDBFED010895A1E21A2EAA1BBB1BB4
:1022E000FD010DC0AA1FBB1FEE1FFF1FA217B307E2
:1022F000E407F50720F0A21BB30BE40BF50B661FF8
:10230000771F881F991F1A9469F7609570958095BB
:1023100090959B01AC01BD01CF010895A29FB00132
:10232000B39FC001A39F700D811D1124911DB29F09
:0E233000700D811D1124911D0895F894FFCFAA
:10233E0000000D0380000100000000000000E50019
:10234E00CD07AE008C00A0002C0100000000CB03D6
:10235E009B0393038403760375030000000036038A
:10236E00CD07E604BD01250204024E6F742073658D
:10237E0074757021000D0A004572726F723A204614
:10238E0061696C656420746F207072696E740000F0
:00000001FF
