:100000000C9462000C948A000C948A000C948A0070
:100010000C948A000C948A000C948A000C948A0038
:100020000C948A000C948A000C948A000C94A4040A
:100030000C948A000C948A000C948A000C948A0018
:100040000C9402040C948A000C9472040C944C04DA
:100050000C948A000C948A000C948A000C948A00F8
:100060000C948A000C948A000000000024002700F1
:100070002A0000000000250028002B0000000000DE
:1000800023002600290004040404040404040202DA
:100090000202020203030303030301020408102007
:1000A0004080010204081020010204081020000012
:1000B0000008000201000003040700000000000027
:1000C0000000650511241FBECFEFD8E0DEBFCDBF15
:1000D00011E0A0E0B1E0E8E8F7E102C005900D9280
:1000E000AE31B107D9F722E0AEE1B1E001C01D9217
:1000F000A231B207E1F710E0C2E6D0E004C02197D8
:10010000FE010E94DA08C136D107C9F70E94C8056E
:100110000C94C20B0C9400002FB7F894809124012A
:1001200090912501A0912601B09127012FBF8093C6
:10013000300190933101A0933201B0933301E091EB
:100140002801F09129010680F781E02D88E291E0F5
:10015000099597FF26C02FB7F894809124019091BC
:100160002501A0912601B09127012FBF40913001B8
:10017000509131016091320170913301841B950BD4
:10018000A60BB70B40912C0150912D0160912E01CF
:1001900070912F0184179507A607B70780F28FEF9C
:1001A0009FEF0895FC01248135816217730748F49D
:1001B00080819181009729F0FC01E60FF71F808173
:1001C000089580E00895CF92DF92EF92FF920F930F
:1001D0001F93CF93DF936C017A018B01C0E0D0E0D5
:1001E000CE15DF0589F0D8016D918D01D601ED9115
:1001F000FC910190F081E02DC6010995892B11F445
:100200007E0102C02196ECCFC701DF91CF911F91F3
:100210000F91FF90EF90DF90CF900895FC01918DAA
:10022000828D981761F0828DDF01A80FB11D5D9658
:100230008C91928D9F5F9F73928F90E008958FEFC6
:100240009FEF0895FC01918D828D981731F0828D7A
:10025000E80FF11D858D90E008958FEF9FEF0895D1
:10026000FC01918D228D892F90E0805C9F4F821B35
:1002700091098F739927089588E291E00E943001D7
:1002800021E0892B09F420E0822F0895FC01848D60
:10029000DF01A80FB11DA35ABF4F2C91848D90E0B0
:1002A00001968F739927848FA689B7892C93A0898B
:1002B000B1898C9180648C93938D848D981306C042
:1002C0000288F389E02D80818F7D80830895EF92ED
:1002D000FF920F931F93CF93DF93EC0181E0888F00
:1002E0009B8D8C8D981305C0E889F989808185FDE7
:1002F00024C0F62E0B8D10E00F5F1F4F0F731127D8
:10030000E02E8C8DE8120CC00FB607FCFACFE889FE
:10031000F989808185FFF5CFCE010E944601F1CF9A
:100320008B8DFE01E80FF11DE35AFF4FF0820B8F1A
:10033000EA89FB898081806207C0EE89FF8960833A
:10034000E889F98980818064808381E090E0DF9191
:10035000CF911F910F91FF90EF900895CF93DF936E
:10036000EC01888D8823C9F0EA89FB89808185FDAD
:1003700005C0A889B9898C9186FD0FC00FB607FC0E
:10038000F5CF808185FFF2CFA889B9898C9185FF4F
:10039000EDCFCE010E944601E7CFDF91CF910895C6
:1003A00080E090E0892B29F00E943C0181110C949F
:1003B00000000895833081F028F4813099F0823074
:1003C000A1F008958730A9F08830B9F08430D1F4D5
:1003D000809180008F7D03C0809180008F77809313
:1003E0008000089584B58F7702C084B58F7D84BD69
:1003F00008958091B0008F7703C08091B0008F7D09
:100400008093B00008951F93CF93DF93282F30E09F
:10041000F901E255FF4F8491F901E656FF4FD4915F
:10042000F901EA57FF4FC491CC23C9F0162F81116F
:100430000E94DA01EC2FF0E0EE0FFF1FEE58FF4FA5
:10044000A591B4918FB7F894111105C09C91ED2F2F
:10045000E095E92302C0EC91ED2BEC938FBFDF9187
:10046000CF911F910895CF93DF9390E0FC01E65662
:10047000FF4F2491FC01EA57FF4F8491882361F1DB
:1004800090E0880F991FFC01E859FF4FC591D49166
:10049000FC01EE58FF4FA591B491611109C09FB7BF
:1004A000F8948881209582238883EC912E230BC0B9
:1004B000623061F49FB7F8943881822F809583234E
:1004C0008883EC912E2B2C939FBF06C08FB7F89496
:1004D000E8812E2B28838FBFDF91CF9108958F92D3
:1004E0009F92AF92BF920F931F93CF93DF93CDB79D
:1004F000DEB7A1970FB6F894DEBF0FBECDBF19A22D
:10050000423008F44AE08E010F5D1F4F842E912C7B
:10051000A12CB12CA50194010E94910BE62FB901E9
:10052000CA0101501109EA3014F4E05D01C0E95C30
:10053000D801EC93232B242B252B61F701151105F2
:1005400071F0F80101900020E9F73197AF01401BED
:10055000510BB80188E291E00E94E30002C080E004
:1005600090E0A1960FB6F894DEBF0FBECDBFDF912D
:10057000CF911F910F91BF90AF909F908F90089552
:10058000FC01808191810C9475090E94D70AFC01BD
:1005900080819181009711F00C94EC0A60E070E08A
:1005A000CB0108950F931F93CF93DF93EC018881C4
:1005B0009981009729F02A813B812617370788F413
:1005C0008B016F5F7F4F0E940D0A009761F0998346
:1005D00088831B830A832C813D81232B11F4FC012A
:1005E000108281E001C080E0DF91CF911F910F91D7
:1005F0000895EF92FF920F931F93CF93DF93EC0137
:100600007B018A01BA010E94D202288139818111BD
:100610000DC02115310519F0C9010E947509198213
:1006200018821D821C821B821A8206C01D830C83C5
:10063000B701C9010E94E50ACE01DF91CF911F9158
:100640000F91FF90EF900895FC01118210821382A8
:100650001282158214826115710551F0FB0101901F
:100660000020E9F73197AF01461B570B0C94F902B4
:1006700008952F923F924F925F926F927F928F9246
:100680009F92AF92BF92CF92DF92EF92FF920F9321
:100690001F93CF93DF938C016B011A01DB0114963A
:1006A0004D905C901597B1E04B1A5108612C712C5C
:1006B000CFEFDFEF812C912CA12CB12C73014614CC
:1006C000570434F12A143B04E4F0B701C6010E9438
:1006D000D20097012F5F3F4F8A3329F0E414F504CD
:1006E00011F07E010BC0FFEFAF1ABF0A4E018FEF72
:1006F000881A980A6414750409F479013901E7012C
:10070000DDCF7401C815D90560F47E01E40109C08C
:100710002A143B04B4F36CE171E0C8010E94240385
:1007200043C06CE171E0C8010E942403F60184819A
:100730009581E816F906C0F58C179D0708F4EC01C1
:10074000D601ED91FC911197EC0FFD1FB080108246
:100750006D917C916E0D7F1D6115710561F0FB013E
:1007600001900020E9F73197AF01461B570BC801F4
:100770000E94F90213C0F80180819181009711F065
:100780000E947509D80111961C921E9215961C9212
:100790001E92149713961C921E921297F601808156
:1007A0009181C80FD91FB882C801DF91CF911F91E5
:1007B0000F91FF90EF90DF90CF90BF90AF909F9000
:1007C0008F907F906F905F904F903F902F90089503
:1007D000FB01DC0111961C921E9213961C921E9234
:1007E000129715961C921E9214978617970749F038
:1007F000608171816115710521F0448155810C94EE
:10080000F90208951F920F920FB60F9211242F93A1
:100810003F938F939F93AF93BF93809124019091C7
:100820002501A0912601B09127013091230123E0F9
:10083000230F2D3720F40196A11DB11D05C026E818
:10084000230F0296A11DB11D209323018093240143
:1008500090932501A0932601B093270180911F0159
:1008600090912001A0912101B09122010196A11D3A
:10087000B11D80931F0190932001A0932101B0939B
:100880002201BF91AF919F918F913F912F910F9036
:100890000FBE0F901F9018951F920F920FB60F92D8
:1008A00011242F933F934F935F936F937F938F9375
:1008B0009F93AF93BF93EF93FF9388E291E00E94E1
:1008C0004601FF91EF91BF91AF919F918F917F91E1
:1008D0006F915F914F913F912F910F900FBE0F90AD
:1008E0001F9018951F920F920FB60F9211242F93FD
:1008F0008F939F93EF93FF93E0913801F09139012B
:100900008081E0913E01F0913F0182FD12C0908113
:10091000809141018F5F8F7320914201821751F0C6
:10092000E0914101F0E0E85DFE4F958F8093410139
:1009300001C08081FF91EF919F918F912F910F9036
:100940000FBE0F901F9018951F920F920FB60F9227
:1009500011242F933F934F935F936F937F938F93C4
:100960009F93AF93BF93EF93FF9380911E0187FFF7
:1009700005C010928500109284001BC020911E01BA
:10098000022E000C330B8091E90190E02817390703
:1009900084F480911E01082E000C990BFC01EE0FCF
:1009A000FF1F8E0F9F1FFC01EB53FE4F808186FDC2
:1009B00015C080911E018F5F80931E0120911E0142
:1009C000022E000C330B8091E90190E028173907C3
:1009D000C4F480911E018C3064F113C080911E011B
:1009E000082E000C990BFC01EE0FFF1F8E0F9F1FAE
:1009F000FC01EB53FE4F808160E08F730E94030285
:100A0000D8CF8091840090918500049680349C49D1
:100A100018F480E49CE905C08091840090918500E1
:100A2000049690938900809388008FEF80931E0135
:100A30003BC0209184003091850080911E01082EDA
:100A4000000C990BFC01EE0FFF1F8E0F9F1FFC0186
:100A5000EB53FE4F81819281820F931F9093890007
:100A60008093880080911E01082E000C990BFC01D8
:100A7000EE0FFF1F8E0F9F1FFC01EB53FE4F808177
:100A800086FF12C080911E01082E000C990BFC01FC
:100A9000EE0FFF1F8E0F9F1FFC01EB53FE4F808157
:100AA00061E08F730E940302FF91EF91BF91AF91BC
:100AB0009F918F917F916F915F914F913F912F9176
:100AC0000F900FBE0F901F90189510922B0110924F
:100AD0002A0188EE93E0A0E0B0E080932C0190938F
:100AE0002D01A0932E01B0932F018EE091E0909301
:100AF00029018093280185EC90E090933501809343
:100B0000340184EC90E0909337018093360180ECBF
:100B100090E0909339018093380181EC90E09093BC
:100B20003B0180933A0182EC90E090933D018093E9
:100B30003C0186EC90E090933F0180933E0110923F
:100B400041011092420110924301109244018091A0
:100B5000E901AAEEB1E09FEF48EB5BE08C3078F45E
:100B60008C93282F30E0F901EE0FFF1F2E0F3F1F4F
:100B7000F901EB53FE4F528341838F5F01C09C9379
:100B8000139622E0AE30B20749F78093E901089549
:100B9000CF93DF93CDB7DEB762970FB6F894DEBF81
:100BA0000FBECDBF789484B5826084BD84B581606A
:100BB00084BD85B5826085BD85B5816085BD809128
:100BC0006E00816080936E001092810080918100A0
:100BD0008260809381008091810081608093810098
:100BE000809180008160809380008091B10084605A
:100BF0008093B1008091B00081608093B0008091BB
:100C00007A00846080937A0080917A008260809379
:100C10007A0080917A00816080937A0080917A00D6
:100C2000806880937A001092C100E0913801F091C1
:100C3000390182E08083E0913401F0913501108226
:100C4000E0913601F091370180E1808310924001FC
:100C5000E0913C01F0913D0186E08083E0913A0112
:100C6000F0913B01808180618083E0913A01F091B5
:100C70003B01808188608083E0913A01F0913B01E3
:100C8000808180688083E0913A01F0913B0180810E
:100C90008F7D80832CE0222E38E8832E912C48E52E
:100CA000C42E42E0D42E6CE171E0CE010D960E947C
:100CB00024030E948C0097FD1EC08A309105D9F054
:100CC00089831A8209891A890F5F1F4FB801CE01E3
:100CD0000D960E94D202882361F32D853E85898975
:100CE0009A89BE016F5F7F4F820F931F0E94E50AB2
:100CF0001A8B098BDECF60E070E0CE010D960E946A
:100D0000D200833509F490C1873521F0823509F08E
:100D10003EC22FC1BE01635F7F4FCE0107960E9486
:100D2000E80342E050E0BE01695F7F4FCE010196CB
:100D30000E943903CE0101960E94C702B62EA72E4B
:100D4000CE0101960E94C002CE0107960E94C00209
:100D5000BE01635F7F4FCE0107960E94E80343E028
:100D600050E0BE01695F7F4FCE0101960E943903BA
:100D7000CE0101960E94C702762E672E062F172FEE
:100D80007801CE0101960E94C002CE0107960E9412
:100D9000C00262E070E0CE010D960E94D200843461
:100DA00011F4672D59C0813409F05AC061E08B2DD0
:100DB0000E9433020115110509F44BC00F3F1105C4
:100DC00009F449C0EB2DF0E0E255FF4FE491E33028
:100DD00009F148F4E130C9F0E230C1F584B5806230
:100DE00084BD78BCD4C1E73009F1E83039F1E43092
:100DF00069F580918000806280938000872D962D18
:100E000090938B0080938A00C2C184B5806884BDB2
:100E100077BCBDC180918000806880938000872D61
:100E2000962D9093890080938800B1C18091B00085
:100E300080688093B0007092B300A9C18091B00027
:100E400080628093B0007092B400A1C10038110597
:100E500014F460E001C061E08B2D0E94030297C191
:100E6000833509F094C10B2D1A2D5801AA0CBB1C17
:100E700020E2E21622E0F2060CF043C0F7FC08C0C4
:100E800035EBE316F10434F084EBE82EF12C02C0CC
:100E9000E12CF12CF501E00FF11FE651FE4F8181AD
:100EA0009401281B310987FD3395220F331F220F30
:100EB000331F2901330F6608770882819601281BAA
:100EC000310987FD3395220F331F220F331FC901CC
:100ED000330FAA0BBB0B9C01AD0124193509460940
:100EE0005709D7010E94520B24EB30E040E050E05C
:100EF0000E94280BDA01C901840D951DA61DB71D9E
:100F00007C010A0D1B1DF801E651FE4F20812C309B
:100F100008F03DC18181A401481B510987FD53950B
:100F2000CA01880F991F880F991FE816F9067CF0EF
:100F30008281A601481B510987FD5395440F551F17
:100F4000440F551FC7014E155F050CF4CA010297E7
:100F5000880F991F4FB7F89430E0F901EE0FFF1F8B
:100F60002E0F3F1FF901EB53FE4F928381834FBF3A
:100F70000EC1BE01635F7F4FCE0107960E94E8035A
:100F800042E050E0BE01695F7F4FCE0101960E94B2
:100F90003903CE0101960E94C702162FCE01019699
:100FA0000E94C002CE0107960E94C00262E070E07B
:100FB000CE010D960E94D200843409F035C0612F15
:100FC00070E0FB01E255FF4F8491FB01E656FF4FB5
:100FD0001491FB01EA57FF4F04910023A1F0811106
:100FE0000E94DA01E02FF0E0EE0FFF1FE458FF4F00
:100FF000A591B491EC911E2391E080E009F490E07A
:10100000692F782F02C060E070E0072E000C880B7B
:10101000990B4AE00E946F0242E050E06AE171E001
:1010200088E291E00E94E30062E070E0CE010D965C
:101030000E94D200182FBE01635F7F4FCE0107963A
:101040000E94E80342E050E0BE01695F7F4FCE019D
:1010500001960E943903CE0101960E94C702F62E26
:10106000E72ECE0101960E94C002CE0107960E9493
:10107000C002BE01635F7F4FCE0107960E94E80366
:1010800043E050E0BE01695F7F4FCE0101960E94B0
:101090003903CE0101960E94C702362ECE01019679
:1010A0000E94C002CE0107960E94C002103529F4AA
:1010B000632D8F2D0E9433026AC0133509F067C07B
:1010C0000F2D1E2D5801AA0CBB1CC501800F911FAE
:1010D000FC01E651FE4F7F0180818C3008F057C043
:1010E00061E0832D0E943302F7018081282F30E0D8
:1010F000A901440F551F240F351FF901EB53FE4F73
:10110000232D2F739081907C922B9083F701118275
:101110001282622D0E94CE082CE0829FF0011124E1
:1011200040E050E09A012E0F3F1FB901660F771F74
:10113000260F371FD901AB53BE4F9C9196FD16C0A9
:101140004F5F5F4F4C30510569F781110FC010920E
:10115000800032E03093810010928500109284006C
:10116000B19A80916F00826080936F000A0D1B1D01
:10117000F801E651FE4FE081F0E0CF01880F991FA2
:10118000E80FF91FEB53FE4F808180648083CE010E
:101190000D960E94C0020E94D00185CD991B79E076
:1011A00004C0991F961708F0961B881F7A95C9F7F7
:1011B00080950895EE0FFF1F0590F491E02D09949E
:1011C000CF93DF938230910510F482E090E0E091BC
:1011D0001002F091110220E030E0C0E0D0E0309742
:1011E00011F14081518148175907C0F0481759073C
:1011F00061F482819381209719F09B838A832BC0AD
:10120000909311028093100226C02115310519F028
:101210004217530718F49A01BE01DF01EF01028063
:10122000F381E02DDCCF2115310509F1281B390BA5
:101230002430310590F412968D919C91139761158D
:10124000710521F0FB019383828304C09093110206
:1012500080931002FD01329644C0FD01E20FF31F9E
:1012600081939193225031092D933C933AC0209160
:101270000E0230910F02232B41F420910201309194
:10128000030130930F0220930E0220910001309150
:1012900001012115310541F42DB73EB740910401FC
:1012A00050910501241B350BE0910E02F0910F02C5
:1012B000E217F307A0F42E1B3F0B2817390778F02D
:1012C000AC014E5F5F4F2417350748F04E0F5F1F8C
:1012D00050930F0240930E028193919302C0E0E07D
:1012E000F0E0CF01DF91CF9108950F931F93CF933B
:1012F000DF93009709F48CC0FC01329713821282AD
:1013000000911002109111020115110581F4208144
:101310003181820F931F20910E0230910F02281706
:10132000390779F5F0930F02E0930E0271C0D801EE
:1013300040E050E0AE17BF0750F412962D913C915B
:101340001397AD012115310509F1D901F3CF9D01A5
:10135000DA013383228360817181860F971F8217A0
:10136000930769F4EC0128813981260F371F2E5F1E
:101370003F4F318320838A819B8193838283452BD6
:1013800029F4F0931102E093100242C01396FC93EB
:10139000EE931297ED01499159919E01240F351F4B
:1013A000E217F30771F480819181840F951F0296F3
:1013B00011969C938E938281938113969C938E9326
:1013C0001297E0E0F0E0D80112968D919C9113976E
:1013D000009719F0F8018C01F6CF8D919C9198013E
:1013E0002E5F3F4F820F931F20910E0230910F020C
:1013F0002817390769F4309729F4109211021092D6
:10140000100202C01382128210930F0200930E0288
:10141000DF91CF911F910F910895A0E0B0E0E3E13B
:10142000FAE00C945E0BEC01009721F4CB010E94D2
:10143000E008B8C0FC01E60FF71F9C0122503109FB
:10144000E217F30708F4ACC0D9010D911C91119774
:1014500006171707B0F00530110508F49FC0C80142
:1014600004978617970708F499C002501109061BC4
:10147000170B019311936D937C93CF010E94750913
:101480008DC05B01A01AB10A4C01800E911EA09183
:101490001002B091110240E050E0E12CF12C1097C5
:1014A00009F44AC0A815B905D1F56D907C90119743
:1014B000630182E0C80ED11CCA14DB0480F1A301D1
:1014C0004A195B096A0182E0C80ED11C1296BC90D1
:1014D00012971396AC91B5E0CB16D10440F0B282CE
:1014E000A38351834083D9016D937C930AC00E5F1F
:1014F0001F4FC301800F911FF90191838083EB2D52
:10150000FA2FE114F10431F0D7011396FC93EE9316
:10151000129744C0F0931102E09310023FC08D91E6
:101520009C9111974817590708F4AC017D01129658
:101530000D90BC91A02DB3CF80910E0290910F021F
:1015400088159905E1F446175707C8F48091000102
:1015500090910101009741F48DB79EB7409104012D
:1015600050910501841B950BE817F907C8F4F09317
:101570000F02E0930E02F901718360830FC0CB016B
:101580000E94E0087C01009759F0A801BE010E946A
:10159000DC0ACE010E947509C70104C0CE0102C059
:1015A00080E090E0CDB7DEB7EEE00C947A0B81E0FE
:1015B00090E0F8940C94C20BFB01DC0102C0019096
:1015C0000D9241505040D8F70895FB01DC01019085
:1015D0000D920020E1F708951F93FC0199278827B9
:1015E000BC01E89411911032E9F3193010F01E306B
:1015F000C8F31B3251F01D3249F4689406C00E94B2
:10160000130B610F711D811D911D119110531A3023
:10161000B0F33EF490958095709561957F4F8F4F14
:101620009F4F1F910895592F482F372F262F660F50
:10163000771F881F991F660F771F881F991F620FDA
:10164000731F841F951F660F771F881F991F0895AA
:10165000052E97FB1EF400940E943F0B57FD07D008
:101660000E94910B07FC03D04EF40C943F0B509555
:101670004095309521953F4F4F4F5F4F089590957E
:101680008095709561957F4F8F4F9F4F08950E9471
:10169000B30BA59F900DB49F900DA49F800D911D3D
:1016A00011240895B7FF0C94470B0E94470B821B2F
:1016B000930B08952F923F924F925F926F927F9279
:1016C0008F929F92AF92BF92CF92DF92EF92FF9252
:1016D0000F931F93CF93DF93CDB7DEB7CA1BDB0BFE
:1016E0000FB6F894DEBF0FBECDBF09942A883988A3
:1016F00048885F846E847D848C849B84AA84B984AA
:10170000C884DF80EE80FD800C811B81AA81B981B5
:10171000CE0FD11D0FB6F894DEBF0FBECDBFED01C9
:101720000895A1E21A2EAA1BBB1BFD010DC0AA1F22
:10173000BB1FEE1FFF1FA217B307E407F50720F03A
:10174000A21BB30BE40BF50B661F771F881F991FB5
:101750001A9469F760957095809590959B01AC01FE
:10176000BD01CF010895A29FB001B39FC001A39F07
:10177000700D811D1124911DB29F700D811D1124CA
:08178000911D0895F894FFCFBC
:101788000000120280000100000000000000670154
:0E179800E30030010E012201AE010D0A000037
:107E0000112484B714BE81FFF0D085E080938100F7
:107E100082E08093C00088E18093C10086E0809377
:107E2000C20080E18093C4008EE0C9D0259A86E02C
:107E300020E33CEF91E0309385002093840096BBD3
:107E4000B09BFECF1D9AA8958150A9F7CC24DD24C4
:107E500088248394B5E0AB2EA1E19A2EF3E0BF2EE7
:107E6000A2D0813461F49FD0082FAFD0023811F036
:107E7000013811F484E001C083E08DD089C08234E0
:107E800011F484E103C0853419F485E0A6D080C0E4
:107E9000853579F488D0E82EFF2485D0082F10E0AE
:107EA000102F00270E291F29000F111F8ED06801E7
:107EB0006FC0863521F484E090D080E0DECF843638
:107EC00009F040C070D06FD0082F6DD080E0C81688
:107ED00080E7D80618F4F601B7BEE895C0E0D1E017
:107EE00062D089930C17E1F7F0E0CF16F0E7DF06D8
:107EF00018F0F601B7BEE89568D007B600FCFDCFD4
:107F0000A601A0E0B1E02C9130E011968C91119780
:107F100090E0982F8827822B932B1296FA010C0160
:107F200087BEE89511244E5F5F4FF1E0A038BF0790
:107F300051F7F601A7BEE89507B600FCFDCF97BE46
:107F4000E89526C08437B1F42ED02DD0F82E2BD052
:107F50003CD0F601EF2C8F010F5F1F4F84911BD097
:107F6000EA94F801C1F70894C11CD11CFA94CF0C13
:107F7000D11C0EC0853739F428D08EE10CD085E9AC
:107F80000AD08FE07ACF813511F488E018D01DD067
:107F900080E101D065CF982F8091C00085FFFCCF94
:107FA0009093C60008958091C00087FFFCCF809118
:107FB000C00084FD01C0A8958091C6000895E0E648
:107FC000F0E098E1908380830895EDDF803219F02E
:107FD00088E0F5DFFFCF84E1DECF1F93182FE3DFCA
:107FE0001150E9F7F2DF1F91089580E0E8DFEE27F6
:047FF000FF270994CA
:027FFE00040479
:0400000300007E007B
:00000001FF